{"contracts/Store.sol":{"Store":{"abi":[{"anonymous":false,"inputs":[{"indexed":true,"internalType":"address","name":"previousOwner","type":"address"},{"indexed":true,"internalType":"address","name":"newOwner","type":"address"}],"name":"OwnershipTransferred","type":"event"},{"anonymous":false,"inputs":[{"indexed":false,"internalType":"uint256","name":"id","type":"uint256"},{"indexed":false,"internalType":"string","name":"name","type":"string"},{"indexed":false,"internalType":"uint256","name":"quantity","type":"uint256"}],"name":"ProductAdded","type":"event"},{"anonymous":false,"inputs":[{"indexed":false,"internalType":"uint256","name":"id","type":"uint256"},{"indexed":false,"internalType":"address","name":"buyer","type":"address"}],"name":"ProductBought","type":"event"},{"anonymous":false,"inputs":[{"indexed":false,"internalType":"uint256","name":"id","type":"uint256"}],"name":"ProductRefund","type":"event"},{"anonymous":false,"inputs":[{"indexed":false,"internalType":"uint256","name":"id","type":"uint256"},{"indexed":false,"internalType":"string","name":"name","type":"string"},{"indexed":false,"internalType":"uint256","name":"quantity","type":"uint256"}],"name":"ProductUpdated","type":"event"},{"inputs":[{"internalType":"string","name":"name","type":"string"},{"internalType":"uint16","name":"quantity","type":"uint16"}],"name":"addProduct","outputs":[],"stateMutability":"nonpayable","type":"function"},{"inputs":[{"internalType":"uint256","name":"id","type":"uint256"}],"name":"buyProduct","outputs":[],"stateMutability":"nonpayable","type":"function"},{"inputs":[],"name":"getAllProducts","outputs":[{"components":[{"internalType":"string","name":"name","type":"string"},{"internalType":"uint16","name":"quantity","type":"uint16"}],"internalType":"struct StoreBase.Product[]","name":"","type":"tuple[]"}],"stateMutability":"view","type":"function"},{"inputs":[{"internalType":"uint256","name":"id","type":"uint256"}],"name":"getProductBuyersById","outputs":[{"internalType":"address[]","name":"","type":"address[]"}],"stateMutability":"view","type":"function"},{"inputs":[{"internalType":"uint256","name":"id","type":"uint256"}],"name":"getProductById","outputs":[{"components":[{"internalType":"string","name":"name","type":"string"},{"internalType":"uint16","name":"quantity","type":"uint16"}],"internalType":"struct StoreBase.Product","name":"","type":"tuple"}],"stateMutability":"view","type":"function"},{"inputs":[{"internalType":"string","name":"name","type":"string"}],"name":"getProductByName","outputs":[{"components":[{"internalType":"string","name":"name","type":"string"},{"internalType":"uint16","name":"quantity","type":"uint16"}],"internalType":"struct StoreBase.Product","name":"","type":"tuple"}],"stateMutability":"view","type":"function"},{"inputs":[],"name":"getRefundPolicyNumber","outputs":[{"internalType":"uint8","name":"","type":"uint8"}],"stateMutability":"view","type":"function"},{"inputs":[],"name":"owner","outputs":[{"internalType":"address","name":"","type":"address"}],"stateMutability":"view","type":"function"},{"inputs":[{"internalType":"uint256","name":"","type":"uint256"}],"name":"products","outputs":[{"internalType":"string","name":"name","type":"string"},{"internalType":"uint16","name":"quantity","type":"uint16"}],"stateMutability":"view","type":"function"},{"inputs":[{"internalType":"uint256","name":"id","type":"uint256"}],"name":"refundProduct","outputs":[],"stateMutability":"nonpayable","type":"function"},{"inputs":[],"name":"renounceOwnership","outputs":[],"stateMutability":"nonpayable","type":"function"},{"inputs":[{"internalType":"uint8","name":"blockNumber","type":"uint8"}],"name":"setRefundPolicyNumber","outputs":[],"stateMutability":"nonpayable","type":"function"},{"inputs":[{"internalType":"address","name":"newOwner","type":"address"}],"name":"transferOwnership","outputs":[],"stateMutability":"nonpayable","type":"function"},{"inputs":[{"internalType":"uint256","name":"id","type":"uint256"},{"internalType":"uint16","name":"quantity","type":"uint16"}],"name":"updateProductQuantity","outputs":[],"stateMutability":"nonpayable","type":"function"}],"evm":{"bytecode":{"linkReferences":{},"object":"60806040526064600060146101000a81548160ff021916908360ff16021790555034801561002c57600080fd5b5061004961003e61004e60201b60201c565b61005660201b60201c565b61011a565b600033905090565b60008060009054906101000a900473ffffffffffffffffffffffffffffffffffffffff169050816000806101000a81548173ffffffffffffffffffffffffffffffffffffffff021916908373ffffffffffffffffffffffffffffffffffffffff1602179055508173ffffffffffffffffffffffffffffffffffffffff168173ffffffffffffffffffffffffffffffffffffffff167f8be0079c531659141344cd1fd0a4f28419497f9722a3daafe3b4186f6b6457e060405160405180910390a35050565b6135e2806101296000396000f3fe608060405234801561001057600080fd5b50600436106100ea5760003560e01c80638642269e1161008c578063d4290f8311610066578063d4290f8314610224578063ea25877214610254578063f2fde38b14610284578063fb8fc184146102a0576100ea565b80638642269e146101ce5780638da5cb5b146101ea578063c750fc5414610208576100ea565b80636a1d1959116100c85780636a1d195914610159578063715018a6146101775780637274d680146101815780637acc0b201461019d576100ea565b806302ee3a52146100ef5780633f70c2b41461010d57806343b726481461013d575b600080fd5b6100f76102bc565b6040516101049190612658565b60405180910390f35b610127600480360381019061012291906126c4565b610409565b604051610134919061272e565b60405180910390f35b610157600480360381019061015291906128b1565b61064c565b005b610161610b14565b60405161016e9190612929565b60405180910390f35b61017f610b67565b005b61019b600480360381019061019691906126c4565b610b7b565b005b6101b760048036038101906101b291906126c4565b610d8b565b6040516101c592919061299d565b60405180910390f35b6101e860048036038101906101e391906126c4565b610e55565b005b6101f261129b565b6040516101ff9190612a0e565b60405180910390f35b610222600480360381019061021d9190612a29565b6112c4565b005b61023e60048036038101906102399190612a69565b6114f0565b60405161024b919061272e565b60405180910390f35b61026e600480360381019061026991906126c4565b611864565b60405161027b9190612b70565b60405180910390f35b61029e60048036038101906102999190612bbe565b611a2c565b005b6102ba60048036038101906102b59190612c17565b611aaf565b005b60606102d267d64b42075b9eff8a60c01b611b25565b6102e6672186486374494d2160c01b611b25565b6102fa671426fca281c211e060c01b611b25565b6001805480602002602001604051908101604052809291908181526020016000905b82821015610400578382906000526020600020906002020160405180604001604052908160008201805461034f90612c73565b80601f016020809104026020016040519081016040528092919081815260200182805461037b90612c73565b80156103c85780601f1061039d576101008083540402835291602001916103c8565b820191906000526020600020905b8154815290600101906020018083116103ab57829003601f168201915b505050505081526020016001820160009054906101000a900461ffff1661ffff1661ffff16815250508152602001906001019061031c565b50505050905090565b61041161248e565b610425675a53dba6dda6985d60c01b611b25565b816001805490506104406714e6c00b2f08abdd60c01b611b28565b610454675d2c3fa9615edb5560c01b611b28565b61046867ed9087de2553a92a60c01b611b28565b61047c67caf78f28a40881c360c01b611b28565b8082106104be576040517f08c379a00000000000000000000000000000000000000000000000000000000081526004016104b590612cf0565b60405180910390fd5b6104d2677785617cd168533760c01b611b28565b6104e667352c67d7623db3d860c01b611b28565b6104fa67f2e33dd365f30dd360c01b611b25565b61050e67caef3087d4eb2b9360c01b611b25565b6105226740a87c08fd43a6ff60c01b611b25565b610536676aeb7d660884affb60c01b611b25565b60006001858154811061054c5761054b612d10565b5b9060005260206000209060020201905061057067de407feed382fdee60c01b611b25565b61058467ea39b7cc2fcbced160c01b611b25565b806040518060400160405290816000820180546105a090612c73565b80601f01602080910402602001604051908101604052809291908181526020018280546105cc90612c73565b80156106195780601f106105ee57610100808354040283529160200191610619565b820191906000526020600020905b8154815290600101906020018083116105fc57829003601f168201915b505050505081526020016001820160009054906101000a900461ffff1661ffff1661ffff16815250509350505050919050565b61066067fff0339d38784e7560c01b611b25565b610668611b2b565b61067c67a1e6384e1ea99d1d60c01b611b25565b61069067ae2cb3d4acf0197a60c01b611b25565b806106a567efd080e171e3234260c01b611b28565b6106b967f1c1e2db156ba87260c01b611b28565b6106cd67300b7ab469b0658760c01b611b28565b6106e1679a28d781b5a30cbb60c01b611b28565b60008161ffff1611610728576040517f08c379a000000000000000000000000000000000000000000000000000000000815260040161071f90612d8b565b60405180910390fd5b61073c67353b406a2faac4e660c01b611b28565b6107506770ba0bc8b3bee76960c01b611b28565b610764673ad780b812992a0260c01b611b25565b61077766b6a882ea06808c60c01b611b25565b8261078c67bb576304a5d5f93660c01b611ba9565b6107a06723070ee2e6f0bed060c01b611ba9565b6107b467a58b4032aa92fa6360c01b611ba9565b6107c8678e5469ca3d8c65f660c01b611ba9565b600081510361080c576040517f08c379a000000000000000000000000000000000000000000000000000000000815260040161080390612df7565b60405180910390fd5b6108206731a445f74fe50f8460c01b611ba9565b61083467f296398e131e18fe60c01b611ba9565b61084867bbb2c87e1da27ce660c01b611b25565b61085c67c347607aa986359460c01b611b25565b61087067e2c84d365376f74d60c01b611b25565b61088467bb123fad451122b560c01b611b25565b6000806003866040516108979190612e53565b908152602001604051809103902060000180546108b390612c73565b90501190506108cc6786a52deb3e7371af60c01b611b25565b6108e06709493e474fae37fd60c01b611b25565b6000600260006108ef88611bac565b81526020019081526020016000205490506109146784cf7e96eba67d2d60c01b611b25565b610928672d949a562954e11760c01b611b25565b8115610a405761094267441ebcd785a22d4f60c01b611b25565b6109566709b587fb4369def360c01b611b25565b61096a678b8badd2184116ca60c01b611b25565b6000600182815481106109805761097f612d10565b5b906000526020600020906002020190506109a467595c27765481b86260c01b611b25565b6109b8671392d012ef27ff3460c01b611b25565b6109c28287611c18565b6109d667f8534a32328882ca60c01b611b25565b6109ea678dfa7dd9065d6ef860c01b611b25565b7ff9b1d9170fbe32752353e00d62e5276b143166c75aa974030dddfac2895601fe82826000018360010160009054906101000a900461ffff16604051610a3293929190612f4d565b60405180910390a150610b0c565b610a5467612addc46d12660e60c01b611b25565b610a6867cb31f9be809ef50260c01b611b25565b6001805490509050610a84676acd3b6a0764e99260c01b611b25565b610a98679fea8512c6b7c62660c01b611b25565b610aa86001805490508787611c84565b610abc677be9c1ff520d798360c01b611b25565b610ad06798f464707cb7b44e60c01b611b25565b7fcca07c742c5274e8b72111ba69566aa4442450bfc50bd897ea38d0170d1accfc818787604051610b0393929190612f8b565b60405180910390a15b505050505050565b6000610b2a67f784455ed58b928f60c01b611b25565b610b3e679449da11c367cbed60c01b611b25565b610b52674de1a2ab66ee881760c01b611b25565b600060149054906101000a900460ff16905090565b610b6f611b2b565b610b796000611e43565b565b610b8f6775da2d9241638a7d60c01b611b25565b80600180549050610baa6714e6c00b2f08abdd60c01b611b28565b610bbe675d2c3fa9615edb5560c01b611b28565b610bd267ed9087de2553a92a60c01b611b28565b610be667caf78f28a40881c360c01b611b28565b808210610c28576040517f08c379a0000000000000000000000000000000000000000000000000000000008152600401610c1f90612cf0565b60405180910390fd5b610c3c677785617cd168533760c01b611b28565b610c5067352c67d7623db3d860c01b611b28565b610c6467230ced41e173715860c01b611b25565b610c786740771defa274980e60c01b611b25565b610c8c67a6a021407f11c2be60c01b611b25565b610ca067177dd824063b0ef660c01b611b25565b6000339050610cb9676b04b117549ce4d260c01b611b25565b610ccd6715437ed44196a42e60c01b611b25565b610cd78482611f07565b610ceb671433bc2b7624a22060c01b611b25565b610cff67c074da0943a8eec860c01b611b25565b600060018581548110610d1557610d14612d10565b5b90600052602060002090600202019050610d39673903a68416d6052960c01b611b25565b610d4d6715a23f2ab0a7430760c01b611b25565b7f21b68a0c4ac2beb4bede4a50169cdeeeaff19097e416463da0524864702ffe4485604051610d7c9190612fc9565b60405180910390a15050505050565b60018181548110610d9b57600080fd5b9060005260206000209060020201600091509050806000018054610dbe90612c73565b80601f0160208091040260200160405190810160405280929190818152602001828054610dea90612c73565b8015610e375780601f10610e0c57610100808354040283529160200191610e37565b820191906000526020600020905b815481529060010190602001808311610e1a57829003601f168201915b5050505050908060010160009054906101000a900461ffff16905082565b610e6967d1f181e31082e35560c01b611b25565b60018181548110610e7d57610e7c612d10565b5b906000526020600020906002020160010160009054906101000a900461ffff16610eb167efd080e171e3234260c01b611b28565b610ec567f1c1e2db156ba87260c01b611b28565b610ed967300b7ab469b0658760c01b611b28565b610eed679a28d781b5a30cbb60c01b611b28565b60008161ffff1611610f34576040517f08c379a0000000000000000000000000000000000000000000000000000000008152600401610f2b90612d8b565b60405180910390fd5b610f4867353b406a2faac4e660c01b611b28565b610f5c6770ba0bc8b3bee76960c01b611b28565b610f7067aa7479e2c4dcbb9d60c01b611b25565b610f84678b774ae57525657160c01b611b25565b81600180549050610f9f6714e6c00b2f08abdd60c01b611b28565b610fb3675d2c3fa9615edb5560c01b611b28565b610fc767ed9087de2553a92a60c01b611b28565b610fdb67caf78f28a40881c360c01b611b28565b80821061101d576040517f08c379a000000000000000000000000000000000000000000000000000000000815260040161101490612cf0565b60405180910390fd5b611031677785617cd168533760c01b611b28565b61104567352c67d7623db3d860c01b611b28565b61105967e50b50fb4486273760c01b611b25565b61106d6771dc22cb3996f06360c01b611b25565b61108167fd436837353207ba60c01b611b25565b611094668aa8ec03056bd060c01b611b25565b60003390506110ad67da2e151ac8a7d9db60c01b611b25565b6110c167be21d0e9622acd0860c01b611b25565b6000600186815481106110d7576110d6612d10565b5b906000526020600020906002020190506110fb679b3d1b63e5164e0460c01b611b25565b61110f6795e0d6f2c6d5035e60c01b611b25565b600061111b87846121b0565b905061113167997e943c44821f5260c01b611b25565b6111456709c29de3dcbe012560c01b611b25565b611159676e5277bcaa67001260c01b611b25565b801561119a576040517f08c379a000000000000000000000000000000000000000000000000000000000815260040161119190613056565b60405180910390fd5b6111ae671bc38ff97968542d60c01b611b25565b6111c26713a03ed8b9dd36d460c01b611b25565b6111d66736778f1a8620eadd60c01b611b25565b6111e0878461224a565b6111f46734c340353ecd80d960c01b611b25565b81600101600081819054906101000a900461ffff1680929190611216906130a5565b91906101000a81548161ffff021916908361ffff16021790555050611245674f799b37ad752da060c01b611b25565b611259673c47f16aa8fd645160c01b611b25565b7f60751e87ab3312710ec7d4da85ea804d0813ca2cb843a75cc23c672e1bd3954a878460405161128a9291906130ce565b60405180910390a150505050505050565b60008060009054906101000a900473ffffffffffffffffffffffffffffffffffffffff16905090565b6112d867b53ebe8d2c3abbda60c01b611b25565b6112e0611b2b565b6112f4677fd94987f598195960c01b611b25565b611308677c44919e1fcc41cd60c01b611b25565b816001805490506113236714e6c00b2f08abdd60c01b611b28565b611337675d2c3fa9615edb5560c01b611b28565b61134b67ed9087de2553a92a60c01b611b28565b61135f67caf78f28a40881c360c01b611b28565b8082106113a1576040517f08c379a000000000000000000000000000000000000000000000000000000000815260040161139890612cf0565b60405180910390fd5b6113b5677785617cd168533760c01b611b28565b6113c967352c67d7623db3d860c01b611b28565b6113dd67835f4be3f0e9398960c01b611b25565b6113f167b7058506756cc22160c01b611b25565b611405675e302319ec9fe7da60c01b611b25565b611419677532384c3586529a60c01b611b25565b6114238484611c18565b611437675402f1a04e47ff2160c01b611b25565b61144b671b58bbe9b07079ee60c01b611b25565b60006001858154811061146157611460612d10565b5b90600052602060002090600202019050611485677de3d6e2c945a35860c01b611b25565b611499678a59d55c88c2c23960c01b611b25565b7ff9b1d9170fbe32752353e00d62e5276b143166c75aa974030dddfac2895601fe85826000018360010160009054906101000a900461ffff166040516114e193929190612f4d565b60405180910390a15050505050565b6114f861248e565b61150c67a46b9c42b6cacce960c01b611b25565b8161152167bb576304a5d5f93660c01b611ba9565b6115356723070ee2e6f0bed060c01b611ba9565b61154967a58b4032aa92fa6360c01b611ba9565b61155d678e5469ca3d8c65f660c01b611ba9565b60008151036115a1576040517f08c379a000000000000000000000000000000000000000000000000000000000815260040161159890612df7565b60405180910390fd5b6115b56731a445f74fe50f8460c01b611ba9565b6115c967f296398e131e18fe60c01b611ba9565b6115dd677177d50746ce7c9960c01b611b25565b6115f1671ba473b8bb8159f860c01b611b25565b611605674bdbb0b6a4eca27760c01b611b25565b61161967fc924040c9c2b0c660c01b611b25565b60008060038560405161162c9190612e53565b9081526020016040518091039020600001805461164890612c73565b9050119050611661676a7495112b2d8eb460c01b611b25565b611675676b3ebd6f986a2c8e60c01b611b25565b61168967c0f9bad4b7abb00960c01b611b25565b806116c9576040517f08c379a00000000000000000000000000000000000000000000000000000000081526004016116c090612cf0565b60405180910390fd5b6116dd6722e3c2fb1490ff1560c01b611b25565b6116f16725cb01d28cd1713260c01b611b25565b6117056757e8299dcefac7fd60c01b611b25565b60006002600061171487611bac565b815260200190815260200160002054905061173967c76b592eaecb9bd260c01b611b25565b61174d67b0ebfee88a05987b60c01b611b25565b60006001828154811061176357611762612d10565b5b90600052602060002090600202019050611787679edf6b866199081c60c01b611b25565b61179b675e553c6346bd79fb60c01b611b25565b806040518060400160405290816000820180546117b790612c73565b80601f01602080910402602001604051908101604052809291908181526020018280546117e390612c73565b80156118305780601f1061180557610100808354040283529160200191611830565b820191906000526020600020905b81548152906001019060200180831161181357829003601f168201915b505050505081526020016001820160009054906101000a900461ffff1661ffff1661ffff1681525050945050505050919050565b606061187a676049280b369015e360c01b611b25565b816001805490506118956714e6c00b2f08abdd60c01b611b28565b6118a9675d2c3fa9615edb5560c01b611b28565b6118bd67ed9087de2553a92a60c01b611b28565b6118d167caf78f28a40881c360c01b611b28565b808210611913576040517f08c379a000000000000000000000000000000000000000000000000000000000815260040161190a90612cf0565b60405180910390fd5b611927677785617cd168533760c01b611b28565b61193b67352c67d7623db3d860c01b611b28565b61194f67455fdf92e89c205160c01b611b25565b611963678c116b3c3c1772f560c01b611b25565b61197767c854e109d07ed0aa60c01b611b25565b61198b67979808bf8750f98d60c01b611b25565b60056000858152602001908152602001600020805480602002602001604051908101604052809291908181526020018280548015611a1e57602002820191906000526020600020905b8160009054906101000a900473ffffffffffffffffffffffffffffffffffffffff1673ffffffffffffffffffffffffffffffffffffffff16815260200190600101908083116119d4575b505050505092505050919050565b611a34611b2b565b600073ffffffffffffffffffffffffffffffffffffffff168173ffffffffffffffffffffffffffffffffffffffff1603611aa3576040517f08c379a0000000000000000000000000000000000000000000000000000000008152600401611a9a90613169565b60405180910390fd5b611aac81611e43565b50565b611ac367b635adf16b47c67160c01b611b25565b611acb611b2b565b611adf672bc82e22b836bb6260c01b611b25565b611af3676e4628216ec3d07160c01b611b25565b611b07675d6ebbd126b0fca060c01b611b25565b80600060146101000a81548160ff021916908360ff16021790555050565b50565b50565b611b33612395565b73ffffffffffffffffffffffffffffffffffffffff16611b5161129b565b73ffffffffffffffffffffffffffffffffffffffff1614611ba7576040517f08c379a0000000000000000000000000000000000000000000000000000000008152600401611b9e906131d5565b60405180910390fd5b565b50565b6000611bc2670e52af31fc5f4f2560c01b61239d565b611bd667f5ee7600d7f8808f60c01b61239d565b611bea6728f4fcb0296b8e8e60c01b61239d565b81604051602001611bfb9190612e53565b604051602081830303815290604052805190602001209050919050565b611c2c672631a031b4e0994260c01b61239d565b611c40677a2f4e696596637960c01b61239d565b8060018381548110611c5557611c54612d10565b5b906000526020600020906002020160010160006101000a81548161ffff021916908361ffff1602179055505050565b611c9867232d86873abf54ed60c01b61239d565b611cac67662264f36f52ba6260c01b61239d565b611cc067dec03e386e04885e60c01b61239d565b600060405180604001604052808481526020018361ffff168152509050611cf167f4567011cba1344060c01b61239d565b611d056789238f84c6e7ec5760c01b61239d565b6000611d1084611bac565b9050611d2667fb50f043db075d9b60c01b61239d565b846002600083815260200190815260200160002081905550611d5267e4dc95c9c48a6d8b60c01b61239d565b611d6667949164aa523869cc60c01b61239d565b60018290806001815401808255809150506001900390600052602060002090600202016000909190919091506000820151816000019081611da79190613382565b5060208201518160010160006101000a81548161ffff021916908361ffff1602179055505050611de1676f189a66919c5c2860c01b61239d565b81600385604051611df29190612e53565b90815260200160405180910390206000820151816000019081611e159190613382565b5060208201518160010160006101000a81548161ffff021916908361ffff1602179055509050505050505050565b60008060009054906101000a900473ffffffffffffffffffffffffffffffffffffffff169050816000806101000a81548173ffffffffffffffffffffffffffffffffffffffff021916908373ffffffffffffffffffffffffffffffffffffffff1602179055508173ffffffffffffffffffffffffffffffffffffffff168173ffffffffffffffffffffffffffffffffffffffff167f8be0079c531659141344cd1fd0a4f28419497f9722a3daafe3b4186f6b6457e060405160405180910390a35050565b611f1b67c4cea4fad77d675760c01b61239d565b611f2f6799ed310f5d85dbd860c01b61239d565b611f436784d08929c8c2682260c01b61239d565b600080600460008473ffffffffffffffffffffffffffffffffffffffff1673ffffffffffffffffffffffffffffffffffffffff16815260200190815260200160002060008581526020019081526020016000205414159050611faf6772d274de7b6a902b60c01b61239d565b611fc3675470bba0d6bcc09560c01b61239d565b600061201e600460008573ffffffffffffffffffffffffffffffffffffffff1673ffffffffffffffffffffffffffffffffffffffff1681526020019081526020016000206000868152602001908152602001600020546123a0565b9050612034674bfe07646362007160c01b61239d565b612048673c854c509489da0d60c01b61239d565b61205c67676233095160dd0f60c01b61239d565b8061209c576040517f08c379a0000000000000000000000000000000000000000000000000000000008152600401612093906134c6565b60405180910390fd5b6120b067c884ef697a29c7e460c01b61239d565b6120c4672d3595c7f2798b3160c01b61239d565b6120d867b4f3e49d56c117f860c01b61239d565b6120ec676d16f1e0227580b260c01b61239d565b8161212c576040517f08c379a000000000000000000000000000000000000000000000000000000000815260040161212390613558565b60405180910390fd5b612140675490258119e2442d60c01b61239d565b61215467b83483119a22563f60c01b61239d565b6000600460008573ffffffffffffffffffffffffffffffffffffffff1673ffffffffffffffffffffffffffffffffffffffff16815260200190815260200160002060008681526020019081526020016000208190555050505050565b60006121c6679f3b704a8d02aa8760c01b61239d565b6121da67fbc91c323eb1d7e660c01b61239d565b6121ee67ffbfc60571f676d060c01b61239d565b6000600460008473ffffffffffffffffffffffffffffffffffffffff1673ffffffffffffffffffffffffffffffffffffffff16815260200190815260200160002060008581526020019081526020016000205411905092915050565b61225e6746ae058aec1d558e60c01b61239d565b61227267b7aee5142df18f0b60c01b61239d565b612286674a0066ecc650a1eb60c01b61239d565b600043905061229f67f00b319e011678bb60c01b61239d565b80600460008473ffffffffffffffffffffffffffffffffffffffff1673ffffffffffffffffffffffffffffffffffffffff16815260200190815260200160002060008581526020019081526020016000208190555061230867d6b99e913272f48f60c01b61239d565b61231c6736f9e478136a5a8e60c01b61239d565b60056000848152602001908152602001600020829080600181540180825580915050600190039060005260206000200160009091909190916101000a81548173ffffffffffffffffffffffffffffffffffffffff021916908373ffffffffffffffffffffffffffffffffffffffff160217905550505050565b600033905090565b50565b60006123b66778e0bca069d029f160c01b61239d565b6123ca677ea6ca17949af29e60c01b61239d565b6123de676736c254fe20f12760c01b61239d565b43600060149054906101000a900460ff1660ff16836123fd9190613578565b1115612448576124176765b6468fe6a419fd60c01b61239d565b61242b672498ee232f012b9a60c01b61239d565b61243f6752faef083e55df0260c01b61239d565b60019050612489565b61245c67fc820f9464ff40b060c01b61239d565b612470676bac576348a2cc6560c01b61239d565b61248467bdbcdb5b195b9e8960c01b61239d565b600090505b919050565b604051806040016040528060608152602001600061ffff1681525090565b600081519050919050565b600082825260208201905092915050565b6000819050602082019050919050565b600081519050919050565b600082825260208201905092915050565b60005b838110156125125780820151818401526020810190506124f7565b60008484015250505050565b6000601f19601f8301169050919050565b600061253a826124d8565b61254481856124e3565b93506125548185602086016124f4565b61255d8161251e565b840191505092915050565b600061ffff82169050919050565b61257f81612568565b82525050565b600060408301600083015184820360008601526125a2828261252f565b91505060208301516125b76020860182612576565b508091505092915050565b60006125ce8383612585565b905092915050565b6000602082019050919050565b60006125ee826124ac565b6125f881856124b7565b93508360208202850161260a856124c8565b8060005b85811015612646578484038952815161262785826125c2565b9450612632836125d6565b925060208a0199505060018101905061260e565b50829750879550505050505092915050565b6000602082019050818103600083015261267281846125e3565b905092915050565b6000604051905090565b600080fd5b600080fd5b6000819050919050565b6126a18161268e565b81146126ac57600080fd5b50565b6000813590506126be81612698565b92915050565b6000602082840312156126da576126d9612684565b5b60006126e8848285016126af565b91505092915050565b6000604083016000830151848203600086015261270e828261252f565b91505060208301516127236020860182612576565b508091505092915050565b6000602082019050818103600083015261274881846126f1565b905092915050565b600080fd5b600080fd5b7f4e487b7100000000000000000000000000000000000000000000000000000000600052604160045260246000fd5b6127928261251e565b810181811067ffffffffffffffff821117156127b1576127b061275a565b5b80604052505050565b60006127c461267a565b90506127d08282612789565b919050565b600067ffffffffffffffff8211156127f0576127ef61275a565b5b6127f98261251e565b9050602081019050919050565b82818337600083830152505050565b6000612828612823846127d5565b6127ba565b90508281526020810184848401111561284457612843612755565b5b61284f848285612806565b509392505050565b600082601f83011261286c5761286b612750565b5b813561287c848260208601612815565b91505092915050565b61288e81612568565b811461289957600080fd5b50565b6000813590506128ab81612885565b92915050565b600080604083850312156128c8576128c7612684565b5b600083013567ffffffffffffffff8111156128e6576128e5612689565b5b6128f285828601612857565b92505060206129038582860161289c565b9150509250929050565b600060ff82169050919050565b6129238161290d565b82525050565b600060208201905061293e600083018461291a565b92915050565b600082825260208201905092915050565b6000612960826124d8565b61296a8185612944565b935061297a8185602086016124f4565b6129838161251e565b840191505092915050565b61299781612568565b82525050565b600060408201905081810360008301526129b78185612955565b90506129c6602083018461298e565b9392505050565b600073ffffffffffffffffffffffffffffffffffffffff82169050919050565b60006129f8826129cd565b9050919050565b612a08816129ed565b82525050565b6000602082019050612a2360008301846129ff565b92915050565b60008060408385031215612a4057612a3f612684565b5b6000612a4e858286016126af565b9250506020612a5f8582860161289c565b9150509250929050565b600060208284031215612a7f57612a7e612684565b5b600082013567ffffffffffffffff811115612a9d57612a9c612689565b5b612aa984828501612857565b91505092915050565b600081519050919050565b600082825260208201905092915050565b6000819050602082019050919050565b612ae7816129ed565b82525050565b6000612af98383612ade565b60208301905092915050565b6000602082019050919050565b6000612b1d82612ab2565b612b278185612abd565b9350612b3283612ace565b8060005b83811015612b63578151612b4a8882612aed565b9750612b5583612b05565b925050600181019050612b36565b5085935050505092915050565b60006020820190508181036000830152612b8a8184612b12565b905092915050565b612b9b816129ed565b8114612ba657600080fd5b50565b600081359050612bb881612b92565b92915050565b600060208284031215612bd457612bd3612684565b5b6000612be284828501612ba9565b91505092915050565b612bf48161290d565b8114612bff57600080fd5b50565b600081359050612c1181612beb565b92915050565b600060208284031215612c2d57612c2c612684565b5b6000612c3b84828501612c02565b91505092915050565b7f4e487b7100000000000000000000000000000000000000000000000000000000600052602260045260246000fd5b60006002820490506001821680612c8b57607f821691505b602082108103612c9e57612c9d612c44565b5b50919050565b7f546869732070726f6475637420646f6573206e6f742065786973742100000000600082015250565b6000612cda601c83612944565b9150612ce582612ca4565b602082019050919050565b60006020820190508181036000830152612d0981612ccd565b9050919050565b7f4e487b7100000000000000000000000000000000000000000000000000000000600052603260045260246000fd5b7f5175616e746974792063616e2774206265203021000000000000000000000000600082015250565b6000612d75601483612944565b9150612d8082612d3f565b602082019050919050565b60006020820190508181036000830152612da481612d68565b9050919050565b7f596f75206861766520746f20656e7465722061206e616d652100000000000000600082015250565b6000612de1601983612944565b9150612dec82612dab565b602082019050919050565b60006020820190508181036000830152612e1081612dd4565b9050919050565b600081905092915050565b6000612e2d826124d8565b612e378185612e17565b9350612e478185602086016124f4565b80840191505092915050565b6000612e5f8284612e22565b915081905092915050565b612e738161268e565b82525050565b60008190508160005260206000209050919050565b60008154612e9b81612c73565b612ea58186612944565b94506001821660008114612ec05760018114612ed657612f09565b60ff198316865281151560200286019350612f09565b612edf85612e79565b60005b83811015612f0157815481890152600182019150602081019050612ee2565b808801955050505b50505092915050565b6000819050919050565b6000612f37612f32612f2d84612568565b612f12565b61268e565b9050919050565b612f4781612f1c565b82525050565b6000606082019050612f626000830186612e6a565b8181036020830152612f748185612e8e565b9050612f836040830184612f3e565b949350505050565b6000606082019050612fa06000830186612e6a565b8181036020830152612fb28185612955565b9050612fc16040830184612f3e565b949350505050565b6000602082019050612fde6000830184612e6a565b92915050565b7f596f752063616e6e6f7420627579207468652073616d652070726f647563742060008201527f6d6f7265207468616e206f6e6365210000000000000000000000000000000000602082015250565b6000613040602f83612944565b915061304b82612fe4565b604082019050919050565b6000602082019050818103600083015261306f81613033565b9050919050565b7f4e487b7100000000000000000000000000000000000000000000000000000000600052601160045260246000fd5b60006130b082612568565b9150600082036130c3576130c2613076565b5b600182039050919050565b60006040820190506130e36000830185612e6a565b6130f060208301846129ff565b9392505050565b7f4f776e61626c653a206e6577206f776e657220697320746865207a65726f206160008201527f6464726573730000000000000000000000000000000000000000000000000000602082015250565b6000613153602683612944565b915061315e826130f7565b604082019050919050565b6000602082019050818103600083015261318281613146565b9050919050565b7f4f776e61626c653a2063616c6c6572206973206e6f7420746865206f776e6572600082015250565b60006131bf602083612944565b91506131ca82613189565b602082019050919050565b600060208201905081810360008301526131ee816131b2565b9050919050565b60006020601f8301049050919050565b600082821b905092915050565b6000600883026132427fffffffffffffffffffffffffffffffffffffffffffffffffffffffffffffffff82613205565b61324c8683613205565b95508019841693508086168417925050509392505050565b600061327f61327a6132758461268e565b612f12565b61268e565b9050919050565b6000819050919050565b61329983613264565b6132ad6132a582613286565b848454613212565b825550505050565b600090565b6132c26132b5565b6132cd818484613290565b505050565b5b818110156132f1576132e66000826132ba565b6001810190506132d3565b5050565b601f8211156133365761330781612e79565b613310846131f5565b8101602085101561331f578190505b61333361332b856131f5565b8301826132d2565b50505b505050565b600082821c905092915050565b60006133596000198460080261333b565b1980831691505092915050565b60006133728383613348565b9150826002028217905092915050565b61338b826124d8565b67ffffffffffffffff8111156133a4576133a361275a565b5b6133ae8254612c73565b6133b98282856132f5565b600060209050601f8311600181146133ec57600084156133da578287015190505b6133e48582613366565b86555061344c565b601f1984166133fa86612e79565b60005b82811015613422578489015182556001820191506020850194506020810190506133fd565b8683101561343f578489015161343b601f891682613348565b8355505b6001600288020188555050505b505050505050565b7f536f7272792c20796f7572207265717565737420666f7220726566756e64206860008201527f6173206265656e2064656e6965642e0000000000000000000000000000000000602082015250565b60006134b0602f83612944565b91506134bb82613454565b604082019050919050565b600060208201905081810360008301526134df816134a3565b9050919050565b7f596f7527766520616c72656164792072657475726e656420796f75722070726f60008201527f64756374206f72206469646e2774206576656e20626f756768742069742e0000602082015250565b6000613542603e83612944565b915061354d826134e6565b604082019050919050565b6000602082019050818103600083015261357181613535565b9050919050565b60006135838261268e565b915061358e8361268e565b92508282019050808211156135a6576135a5613076565b5b9291505056fea26469706673582212206a7e454bd055d31d04573d1442cf3edec37aeaa8e0cab12ccc76ee0975c8116d64736f6c634300081b0033","opcodes":"PUSH1 0x80 PUSH1 0x40 MSTORE PUSH1 0x64 PUSH1 0x0 PUSH1 0x14 PUSH2 0x100 EXP DUP2 SLOAD DUP2 PUSH1 0xFF MUL NOT AND SWAP1 DUP4 PUSH1 0xFF AND MUL OR SWAP1 SSTORE POP CALLVALUE DUP1 ISZERO PUSH2 0x2C JUMPI PUSH1 0x0 DUP1 REVERT JUMPDEST POP PUSH2 0x49 PUSH2 0x3E PUSH2 0x4E PUSH1 0x20 SHL PUSH1 0x20 SHR JUMP JUMPDEST PUSH2 0x56 PUSH1 0x20 SHL PUSH1 0x20 SHR JUMP JUMPDEST PUSH2 0x11A JUMP JUMPDEST PUSH1 0x0 CALLER SWAP1 POP SWAP1 JUMP JUMPDEST PUSH1 0x0 DUP1 PUSH1 0x0 SWAP1 SLOAD SWAP1 PUSH2 0x100 EXP SWAP1 DIV PUSH20 0xFFFFFFFFFFFFFFFFFFFFFFFFFFFFFFFFFFFFFFFF AND SWAP1 POP DUP2 PUSH1 0x0 DUP1 PUSH2 0x100 EXP DUP2 SLOAD DUP2 PUSH20 0xFFFFFFFFFFFFFFFFFFFFFFFFFFFFFFFFFFFFFFFF MUL NOT AND SWAP1 DUP4 PUSH20 0xFFFFFFFFFFFFFFFFFFFFFFFFFFFFFFFFFFFFFFFF AND MUL OR SWAP1 SSTORE POP DUP2 PUSH20 0xFFFFFFFFFFFFFFFFFFFFFFFFFFFFFFFFFFFFFFFF AND DUP2 PUSH20 0xFFFFFFFFFFFFFFFFFFFFFFFFFFFFFFFFFFFFFFFF AND PUSH32 0x8BE0079C531659141344CD1FD0A4F28419497F9722A3DAAFE3B4186F6B6457E0 PUSH1 0x40 MLOAD PUSH1 0x40 MLOAD DUP1 SWAP2 SUB SWAP1 LOG3 POP POP JUMP JUMPDEST PUSH2 0x35E2 DUP1 PUSH2 0x129 PUSH1 0x0 CODECOPY PUSH1 0x0 RETURN INVALID PUSH1 0x80 PUSH1 0x40 MSTORE CALLVALUE DUP1 ISZERO PUSH2 0x10 JUMPI PUSH1 0x0 DUP1 REVERT JUMPDEST POP PUSH1 0x4 CALLDATASIZE LT PUSH2 0xEA JUMPI PUSH1 0x0 CALLDATALOAD PUSH1 0xE0 SHR DUP1 PUSH4 0x8642269E GT PUSH2 0x8C JUMPI DUP1 PUSH4 0xD4290F83 GT PUSH2 0x66 JUMPI DUP1 PUSH4 0xD4290F83 EQ PUSH2 0x224 JUMPI DUP1 PUSH4 0xEA258772 EQ PUSH2 0x254 JUMPI DUP1 PUSH4 0xF2FDE38B EQ PUSH2 0x284 JUMPI DUP1 PUSH4 0xFB8FC184 EQ PUSH2 0x2A0 JUMPI PUSH2 0xEA JUMP JUMPDEST DUP1 PUSH4 0x8642269E EQ PUSH2 0x1CE JUMPI DUP1 PUSH4 0x8DA5CB5B EQ PUSH2 0x1EA JUMPI DUP1 PUSH4 0xC750FC54 EQ PUSH2 0x208 JUMPI PUSH2 0xEA JUMP JUMPDEST DUP1 PUSH4 0x6A1D1959 GT PUSH2 0xC8 JUMPI DUP1 PUSH4 0x6A1D1959 EQ PUSH2 0x159 JUMPI DUP1 PUSH4 0x715018A6 EQ PUSH2 0x177 JUMPI DUP1 PUSH4 0x7274D680 EQ PUSH2 0x181 JUMPI DUP1 PUSH4 0x7ACC0B20 EQ PUSH2 0x19D JUMPI PUSH2 0xEA JUMP JUMPDEST DUP1 PUSH4 0x2EE3A52 EQ PUSH2 0xEF JUMPI DUP1 PUSH4 0x3F70C2B4 EQ PUSH2 0x10D JUMPI DUP1 PUSH4 0x43B72648 EQ PUSH2 0x13D JUMPI JUMPDEST PUSH1 0x0 DUP1 REVERT JUMPDEST PUSH2 0xF7 PUSH2 0x2BC JUMP JUMPDEST PUSH1 0x40 MLOAD PUSH2 0x104 SWAP2 SWAP1 PUSH2 0x2658 JUMP JUMPDEST PUSH1 0x40 MLOAD DUP1 SWAP2 SUB SWAP1 RETURN JUMPDEST PUSH2 0x127 PUSH1 0x4 DUP1 CALLDATASIZE SUB DUP2 ADD SWAP1 PUSH2 0x122 SWAP2 SWAP1 PUSH2 0x26C4 JUMP JUMPDEST PUSH2 0x409 JUMP JUMPDEST PUSH1 0x40 MLOAD PUSH2 0x134 SWAP2 SWAP1 PUSH2 0x272E JUMP JUMPDEST PUSH1 0x40 MLOAD DUP1 SWAP2 SUB SWAP1 RETURN JUMPDEST PUSH2 0x157 PUSH1 0x4 DUP1 CALLDATASIZE SUB DUP2 ADD SWAP1 PUSH2 0x152 SWAP2 SWAP1 PUSH2 0x28B1 JUMP JUMPDEST PUSH2 0x64C JUMP JUMPDEST STOP JUMPDEST PUSH2 0x161 PUSH2 0xB14 JUMP JUMPDEST PUSH1 0x40 MLOAD PUSH2 0x16E SWAP2 SWAP1 PUSH2 0x2929 JUMP JUMPDEST PUSH1 0x40 MLOAD DUP1 SWAP2 SUB SWAP1 RETURN JUMPDEST PUSH2 0x17F PUSH2 0xB67 JUMP JUMPDEST STOP JUMPDEST PUSH2 0x19B PUSH1 0x4 DUP1 CALLDATASIZE SUB DUP2 ADD SWAP1 PUSH2 0x196 SWAP2 SWAP1 PUSH2 0x26C4 JUMP JUMPDEST PUSH2 0xB7B JUMP JUMPDEST STOP JUMPDEST PUSH2 0x1B7 PUSH1 0x4 DUP1 CALLDATASIZE SUB DUP2 ADD SWAP1 PUSH2 0x1B2 SWAP2 SWAP1 PUSH2 0x26C4 JUMP JUMPDEST PUSH2 0xD8B JUMP JUMPDEST PUSH1 0x40 MLOAD PUSH2 0x1C5 SWAP3 SWAP2 SWAP1 PUSH2 0x299D JUMP JUMPDEST PUSH1 0x40 MLOAD DUP1 SWAP2 SUB SWAP1 RETURN JUMPDEST PUSH2 0x1E8 PUSH1 0x4 DUP1 CALLDATASIZE SUB DUP2 ADD SWAP1 PUSH2 0x1E3 SWAP2 SWAP1 PUSH2 0x26C4 JUMP JUMPDEST PUSH2 0xE55 JUMP JUMPDEST STOP JUMPDEST PUSH2 0x1F2 PUSH2 0x129B JUMP JUMPDEST PUSH1 0x40 MLOAD PUSH2 0x1FF SWAP2 SWAP1 PUSH2 0x2A0E JUMP JUMPDEST PUSH1 0x40 MLOAD DUP1 SWAP2 SUB SWAP1 RETURN JUMPDEST PUSH2 0x222 PUSH1 0x4 DUP1 CALLDATASIZE SUB DUP2 ADD SWAP1 PUSH2 0x21D SWAP2 SWAP1 PUSH2 0x2A29 JUMP JUMPDEST PUSH2 0x12C4 JUMP JUMPDEST STOP JUMPDEST PUSH2 0x23E PUSH1 0x4 DUP1 CALLDATASIZE SUB DUP2 ADD SWAP1 PUSH2 0x239 SWAP2 SWAP1 PUSH2 0x2A69 JUMP JUMPDEST PUSH2 0x14F0 JUMP JUMPDEST PUSH1 0x40 MLOAD PUSH2 0x24B SWAP2 SWAP1 PUSH2 0x272E JUMP JUMPDEST PUSH1 0x40 MLOAD DUP1 SWAP2 SUB SWAP1 RETURN JUMPDEST PUSH2 0x26E PUSH1 0x4 DUP1 CALLDATASIZE SUB DUP2 ADD SWAP1 PUSH2 0x269 SWAP2 SWAP1 PUSH2 0x26C4 JUMP JUMPDEST PUSH2 0x1864 JUMP JUMPDEST PUSH1 0x40 MLOAD PUSH2 0x27B SWAP2 SWAP1 PUSH2 0x2B70 JUMP JUMPDEST PUSH1 0x40 MLOAD DUP1 SWAP2 SUB SWAP1 RETURN JUMPDEST PUSH2 0x29E PUSH1 0x4 DUP1 CALLDATASIZE SUB DUP2 ADD SWAP1 PUSH2 0x299 SWAP2 SWAP1 PUSH2 0x2BBE JUMP JUMPDEST PUSH2 0x1A2C JUMP JUMPDEST STOP JUMPDEST PUSH2 0x2BA PUSH1 0x4 DUP1 CALLDATASIZE SUB DUP2 ADD SWAP1 PUSH2 0x2B5 SWAP2 SWAP1 PUSH2 0x2C17 JUMP JUMPDEST PUSH2 0x1AAF JUMP JUMPDEST STOP JUMPDEST PUSH1 0x60 PUSH2 0x2D2 PUSH8 0xD64B42075B9EFF8A PUSH1 0xC0 SHL PUSH2 0x1B25 JUMP JUMPDEST PUSH2 0x2E6 PUSH8 0x2186486374494D21 PUSH1 0xC0 SHL PUSH2 0x1B25 JUMP JUMPDEST PUSH2 0x2FA PUSH8 0x1426FCA281C211E0 PUSH1 0xC0 SHL PUSH2 0x1B25 JUMP JUMPDEST PUSH1 0x1 DUP1 SLOAD DUP1 PUSH1 0x20 MUL PUSH1 0x20 ADD PUSH1 0x40 MLOAD SWAP1 DUP2 ADD PUSH1 0x40 MSTORE DUP1 SWAP3 SWAP2 SWAP1 DUP2 DUP2 MSTORE PUSH1 0x20 ADD PUSH1 0x0 SWAP1 JUMPDEST DUP3 DUP3 LT ISZERO PUSH2 0x400 JUMPI DUP4 DUP3 SWAP1 PUSH1 0x0 MSTORE PUSH1 0x20 PUSH1 0x0 KECCAK256 SWAP1 PUSH1 0x2 MUL ADD PUSH1 0x40 MLOAD DUP1 PUSH1 0x40 ADD PUSH1 0x40 MSTORE SWAP1 DUP2 PUSH1 0x0 DUP3 ADD DUP1 SLOAD PUSH2 0x34F SWAP1 PUSH2 0x2C73 JUMP JUMPDEST DUP1 PUSH1 0x1F ADD PUSH1 0x20 DUP1 SWAP2 DIV MUL PUSH1 0x20 ADD PUSH1 0x40 MLOAD SWAP1 DUP2 ADD PUSH1 0x40 MSTORE DUP1 SWAP3 SWAP2 SWAP1 DUP2 DUP2 MSTORE PUSH1 0x20 ADD DUP3 DUP1 SLOAD PUSH2 0x37B SWAP1 PUSH2 0x2C73 JUMP JUMPDEST DUP1 ISZERO PUSH2 0x3C8 JUMPI DUP1 PUSH1 0x1F LT PUSH2 0x39D JUMPI PUSH2 0x100 DUP1 DUP4 SLOAD DIV MUL DUP4 MSTORE SWAP2 PUSH1 0x20 ADD SWAP2 PUSH2 0x3C8 JUMP JUMPDEST DUP3 ADD SWAP2 SWAP1 PUSH1 0x0 MSTORE PUSH1 0x20 PUSH1 0x0 KECCAK256 SWAP1 JUMPDEST DUP2 SLOAD DUP2 MSTORE SWAP1 PUSH1 0x1 ADD SWAP1 PUSH1 0x20 ADD DUP1 DUP4 GT PUSH2 0x3AB JUMPI DUP3 SWAP1 SUB PUSH1 0x1F AND DUP3 ADD SWAP2 JUMPDEST POP POP POP POP POP DUP2 MSTORE PUSH1 0x20 ADD PUSH1 0x1 DUP3 ADD PUSH1 0x0 SWAP1 SLOAD SWAP1 PUSH2 0x100 EXP SWAP1 DIV PUSH2 0xFFFF AND PUSH2 0xFFFF AND PUSH2 0xFFFF AND DUP2 MSTORE POP POP DUP2 MSTORE PUSH1 0x20 ADD SWAP1 PUSH1 0x1 ADD SWAP1 PUSH2 0x31C JUMP JUMPDEST POP POP POP POP SWAP1 POP SWAP1 JUMP JUMPDEST PUSH2 0x411 PUSH2 0x248E JUMP JUMPDEST PUSH2 0x425 PUSH8 0x5A53DBA6DDA6985D PUSH1 0xC0 SHL PUSH2 0x1B25 JUMP JUMPDEST DUP2 PUSH1 0x1 DUP1 SLOAD SWAP1 POP PUSH2 0x440 PUSH8 0x14E6C00B2F08ABDD PUSH1 0xC0 SHL PUSH2 0x1B28 JUMP JUMPDEST PUSH2 0x454 PUSH8 0x5D2C3FA9615EDB55 PUSH1 0xC0 SHL PUSH2 0x1B28 JUMP JUMPDEST PUSH2 0x468 PUSH8 0xED9087DE2553A92A PUSH1 0xC0 SHL PUSH2 0x1B28 JUMP JUMPDEST PUSH2 0x47C PUSH8 0xCAF78F28A40881C3 PUSH1 0xC0 SHL PUSH2 0x1B28 JUMP JUMPDEST DUP1 DUP3 LT PUSH2 0x4BE JUMPI PUSH1 0x40 MLOAD PUSH32 0x8C379A000000000000000000000000000000000000000000000000000000000 DUP2 MSTORE PUSH1 0x4 ADD PUSH2 0x4B5 SWAP1 PUSH2 0x2CF0 JUMP JUMPDEST PUSH1 0x40 MLOAD DUP1 SWAP2 SUB SWAP1 REVERT JUMPDEST PUSH2 0x4D2 PUSH8 0x7785617CD1685337 PUSH1 0xC0 SHL PUSH2 0x1B28 JUMP JUMPDEST PUSH2 0x4E6 PUSH8 0x352C67D7623DB3D8 PUSH1 0xC0 SHL PUSH2 0x1B28 JUMP JUMPDEST PUSH2 0x4FA PUSH8 0xF2E33DD365F30DD3 PUSH1 0xC0 SHL PUSH2 0x1B25 JUMP JUMPDEST PUSH2 0x50E PUSH8 0xCAEF3087D4EB2B93 PUSH1 0xC0 SHL PUSH2 0x1B25 JUMP JUMPDEST PUSH2 0x522 PUSH8 0x40A87C08FD43A6FF PUSH1 0xC0 SHL PUSH2 0x1B25 JUMP JUMPDEST PUSH2 0x536 PUSH8 0x6AEB7D660884AFFB PUSH1 0xC0 SHL PUSH2 0x1B25 JUMP JUMPDEST PUSH1 0x0 PUSH1 0x1 DUP6 DUP2 SLOAD DUP2 LT PUSH2 0x54C JUMPI PUSH2 0x54B PUSH2 0x2D10 JUMP JUMPDEST JUMPDEST SWAP1 PUSH1 0x0 MSTORE PUSH1 0x20 PUSH1 0x0 KECCAK256 SWAP1 PUSH1 0x2 MUL ADD SWAP1 POP PUSH2 0x570 PUSH8 0xDE407FEED382FDEE PUSH1 0xC0 SHL PUSH2 0x1B25 JUMP JUMPDEST PUSH2 0x584 PUSH8 0xEA39B7CC2FCBCED1 PUSH1 0xC0 SHL PUSH2 0x1B25 JUMP JUMPDEST DUP1 PUSH1 0x40 MLOAD DUP1 PUSH1 0x40 ADD PUSH1 0x40 MSTORE SWAP1 DUP2 PUSH1 0x0 DUP3 ADD DUP1 SLOAD PUSH2 0x5A0 SWAP1 PUSH2 0x2C73 JUMP JUMPDEST DUP1 PUSH1 0x1F ADD PUSH1 0x20 DUP1 SWAP2 DIV MUL PUSH1 0x20 ADD PUSH1 0x40 MLOAD SWAP1 DUP2 ADD PUSH1 0x40 MSTORE DUP1 SWAP3 SWAP2 SWAP1 DUP2 DUP2 MSTORE PUSH1 0x20 ADD DUP3 DUP1 SLOAD PUSH2 0x5CC SWAP1 PUSH2 0x2C73 JUMP JUMPDEST DUP1 ISZERO PUSH2 0x619 JUMPI DUP1 PUSH1 0x1F LT PUSH2 0x5EE JUMPI PUSH2 0x100 DUP1 DUP4 SLOAD DIV MUL DUP4 MSTORE SWAP2 PUSH1 0x20 ADD SWAP2 PUSH2 0x619 JUMP JUMPDEST DUP3 ADD SWAP2 SWAP1 PUSH1 0x0 MSTORE PUSH1 0x20 PUSH1 0x0 KECCAK256 SWAP1 JUMPDEST DUP2 SLOAD DUP2 MSTORE SWAP1 PUSH1 0x1 ADD SWAP1 PUSH1 0x20 ADD DUP1 DUP4 GT PUSH2 0x5FC JUMPI DUP3 SWAP1 SUB PUSH1 0x1F AND DUP3 ADD SWAP2 JUMPDEST POP POP POP POP POP DUP2 MSTORE PUSH1 0x20 ADD PUSH1 0x1 DUP3 ADD PUSH1 0x0 SWAP1 SLOAD SWAP1 PUSH2 0x100 EXP SWAP1 DIV PUSH2 0xFFFF AND PUSH2 0xFFFF AND PUSH2 0xFFFF AND DUP2 MSTORE POP POP SWAP4 POP POP POP POP SWAP2 SWAP1 POP JUMP JUMPDEST PUSH2 0x660 PUSH8 0xFFF0339D38784E75 PUSH1 0xC0 SHL PUSH2 0x1B25 JUMP JUMPDEST PUSH2 0x668 PUSH2 0x1B2B JUMP JUMPDEST PUSH2 0x67C PUSH8 0xA1E6384E1EA99D1D PUSH1 0xC0 SHL PUSH2 0x1B25 JUMP JUMPDEST PUSH2 0x690 PUSH8 0xAE2CB3D4ACF0197A PUSH1 0xC0 SHL PUSH2 0x1B25 JUMP JUMPDEST DUP1 PUSH2 0x6A5 PUSH8 0xEFD080E171E32342 PUSH1 0xC0 SHL PUSH2 0x1B28 JUMP JUMPDEST PUSH2 0x6B9 PUSH8 0xF1C1E2DB156BA872 PUSH1 0xC0 SHL PUSH2 0x1B28 JUMP JUMPDEST PUSH2 0x6CD PUSH8 0x300B7AB469B06587 PUSH1 0xC0 SHL PUSH2 0x1B28 JUMP JUMPDEST PUSH2 0x6E1 PUSH8 0x9A28D781B5A30CBB PUSH1 0xC0 SHL PUSH2 0x1B28 JUMP JUMPDEST PUSH1 0x0 DUP2 PUSH2 0xFFFF AND GT PUSH2 0x728 JUMPI PUSH1 0x40 MLOAD PUSH32 0x8C379A000000000000000000000000000000000000000000000000000000000 DUP2 MSTORE PUSH1 0x4 ADD PUSH2 0x71F SWAP1 PUSH2 0x2D8B JUMP JUMPDEST PUSH1 0x40 MLOAD DUP1 SWAP2 SUB SWAP1 REVERT JUMPDEST PUSH2 0x73C PUSH8 0x353B406A2FAAC4E6 PUSH1 0xC0 SHL PUSH2 0x1B28 JUMP JUMPDEST PUSH2 0x750 PUSH8 0x70BA0BC8B3BEE769 PUSH1 0xC0 SHL PUSH2 0x1B28 JUMP JUMPDEST PUSH2 0x764 PUSH8 0x3AD780B812992A02 PUSH1 0xC0 SHL PUSH2 0x1B25 JUMP JUMPDEST PUSH2 0x777 PUSH7 0xB6A882EA06808C PUSH1 0xC0 SHL PUSH2 0x1B25 JUMP JUMPDEST DUP3 PUSH2 0x78C PUSH8 0xBB576304A5D5F936 PUSH1 0xC0 SHL PUSH2 0x1BA9 JUMP JUMPDEST PUSH2 0x7A0 PUSH8 0x23070EE2E6F0BED0 PUSH1 0xC0 SHL PUSH2 0x1BA9 JUMP JUMPDEST PUSH2 0x7B4 PUSH8 0xA58B4032AA92FA63 PUSH1 0xC0 SHL PUSH2 0x1BA9 JUMP JUMPDEST PUSH2 0x7C8 PUSH8 0x8E5469CA3D8C65F6 PUSH1 0xC0 SHL PUSH2 0x1BA9 JUMP JUMPDEST PUSH1 0x0 DUP2 MLOAD SUB PUSH2 0x80C JUMPI PUSH1 0x40 MLOAD PUSH32 0x8C379A000000000000000000000000000000000000000000000000000000000 DUP2 MSTORE PUSH1 0x4 ADD PUSH2 0x803 SWAP1 PUSH2 0x2DF7 JUMP JUMPDEST PUSH1 0x40 MLOAD DUP1 SWAP2 SUB SWAP1 REVERT JUMPDEST PUSH2 0x820 PUSH8 0x31A445F74FE50F84 PUSH1 0xC0 SHL PUSH2 0x1BA9 JUMP JUMPDEST PUSH2 0x834 PUSH8 0xF296398E131E18FE PUSH1 0xC0 SHL PUSH2 0x1BA9 JUMP JUMPDEST PUSH2 0x848 PUSH8 0xBBB2C87E1DA27CE6 PUSH1 0xC0 SHL PUSH2 0x1B25 JUMP JUMPDEST PUSH2 0x85C PUSH8 0xC347607AA9863594 PUSH1 0xC0 SHL PUSH2 0x1B25 JUMP JUMPDEST PUSH2 0x870 PUSH8 0xE2C84D365376F74D PUSH1 0xC0 SHL PUSH2 0x1B25 JUMP JUMPDEST PUSH2 0x884 PUSH8 0xBB123FAD451122B5 PUSH1 0xC0 SHL PUSH2 0x1B25 JUMP JUMPDEST PUSH1 0x0 DUP1 PUSH1 0x3 DUP7 PUSH1 0x40 MLOAD PUSH2 0x897 SWAP2 SWAP1 PUSH2 0x2E53 JUMP JUMPDEST SWAP1 DUP2 MSTORE PUSH1 0x20 ADD PUSH1 0x40 MLOAD DUP1 SWAP2 SUB SWAP1 KECCAK256 PUSH1 0x0 ADD DUP1 SLOAD PUSH2 0x8B3 SWAP1 PUSH2 0x2C73 JUMP JUMPDEST SWAP1 POP GT SWAP1 POP PUSH2 0x8CC PUSH8 0x86A52DEB3E7371AF PUSH1 0xC0 SHL PUSH2 0x1B25 JUMP JUMPDEST PUSH2 0x8E0 PUSH8 0x9493E474FAE37FD PUSH1 0xC0 SHL PUSH2 0x1B25 JUMP JUMPDEST PUSH1 0x0 PUSH1 0x2 PUSH1 0x0 PUSH2 0x8EF DUP9 PUSH2 0x1BAC JUMP JUMPDEST DUP2 MSTORE PUSH1 0x20 ADD SWAP1 DUP2 MSTORE PUSH1 0x20 ADD PUSH1 0x0 KECCAK256 SLOAD SWAP1 POP PUSH2 0x914 PUSH8 0x84CF7E96EBA67D2D PUSH1 0xC0 SHL PUSH2 0x1B25 JUMP JUMPDEST PUSH2 0x928 PUSH8 0x2D949A562954E117 PUSH1 0xC0 SHL PUSH2 0x1B25 JUMP JUMPDEST DUP2 ISZERO PUSH2 0xA40 JUMPI PUSH2 0x942 PUSH8 0x441EBCD785A22D4F PUSH1 0xC0 SHL PUSH2 0x1B25 JUMP JUMPDEST PUSH2 0x956 PUSH8 0x9B587FB4369DEF3 PUSH1 0xC0 SHL PUSH2 0x1B25 JUMP JUMPDEST PUSH2 0x96A PUSH8 0x8B8BADD2184116CA PUSH1 0xC0 SHL PUSH2 0x1B25 JUMP JUMPDEST PUSH1 0x0 PUSH1 0x1 DUP3 DUP2 SLOAD DUP2 LT PUSH2 0x980 JUMPI PUSH2 0x97F PUSH2 0x2D10 JUMP JUMPDEST JUMPDEST SWAP1 PUSH1 0x0 MSTORE PUSH1 0x20 PUSH1 0x0 KECCAK256 SWAP1 PUSH1 0x2 MUL ADD SWAP1 POP PUSH2 0x9A4 PUSH8 0x595C27765481B862 PUSH1 0xC0 SHL PUSH2 0x1B25 JUMP JUMPDEST PUSH2 0x9B8 PUSH8 0x1392D012EF27FF34 PUSH1 0xC0 SHL PUSH2 0x1B25 JUMP JUMPDEST PUSH2 0x9C2 DUP3 DUP8 PUSH2 0x1C18 JUMP JUMPDEST PUSH2 0x9D6 PUSH8 0xF8534A32328882CA PUSH1 0xC0 SHL PUSH2 0x1B25 JUMP JUMPDEST PUSH2 0x9EA PUSH8 0x8DFA7DD9065D6EF8 PUSH1 0xC0 SHL PUSH2 0x1B25 JUMP JUMPDEST PUSH32 0xF9B1D9170FBE32752353E00D62E5276B143166C75AA974030DDDFAC2895601FE DUP3 DUP3 PUSH1 0x0 ADD DUP4 PUSH1 0x1 ADD PUSH1 0x0 SWAP1 SLOAD SWAP1 PUSH2 0x100 EXP SWAP1 DIV PUSH2 0xFFFF AND PUSH1 0x40 MLOAD PUSH2 0xA32 SWAP4 SWAP3 SWAP2 SWAP1 PUSH2 0x2F4D JUMP JUMPDEST PUSH1 0x40 MLOAD DUP1 SWAP2 SUB SWAP1 LOG1 POP PUSH2 0xB0C JUMP JUMPDEST PUSH2 0xA54 PUSH8 0x612ADDC46D12660E PUSH1 0xC0 SHL PUSH2 0x1B25 JUMP JUMPDEST PUSH2 0xA68 PUSH8 0xCB31F9BE809EF502 PUSH1 0xC0 SHL PUSH2 0x1B25 JUMP JUMPDEST PUSH1 0x1 DUP1 SLOAD SWAP1 POP SWAP1 POP PUSH2 0xA84 PUSH8 0x6ACD3B6A0764E992 PUSH1 0xC0 SHL PUSH2 0x1B25 JUMP JUMPDEST PUSH2 0xA98 PUSH8 0x9FEA8512C6B7C626 PUSH1 0xC0 SHL PUSH2 0x1B25 JUMP JUMPDEST PUSH2 0xAA8 PUSH1 0x1 DUP1 SLOAD SWAP1 POP DUP8 DUP8 PUSH2 0x1C84 JUMP JUMPDEST PUSH2 0xABC PUSH8 0x7BE9C1FF520D7983 PUSH1 0xC0 SHL PUSH2 0x1B25 JUMP JUMPDEST PUSH2 0xAD0 PUSH8 0x98F464707CB7B44E PUSH1 0xC0 SHL PUSH2 0x1B25 JUMP JUMPDEST PUSH32 0xCCA07C742C5274E8B72111BA69566AA4442450BFC50BD897EA38D0170D1ACCFC DUP2 DUP8 DUP8 PUSH1 0x40 MLOAD PUSH2 0xB03 SWAP4 SWAP3 SWAP2 SWAP1 PUSH2 0x2F8B JUMP JUMPDEST PUSH1 0x40 MLOAD DUP1 SWAP2 SUB SWAP1 LOG1 JUMPDEST POP POP POP POP POP POP JUMP JUMPDEST PUSH1 0x0 PUSH2 0xB2A PUSH8 0xF784455ED58B928F PUSH1 0xC0 SHL PUSH2 0x1B25 JUMP JUMPDEST PUSH2 0xB3E PUSH8 0x9449DA11C367CBED PUSH1 0xC0 SHL PUSH2 0x1B25 JUMP JUMPDEST PUSH2 0xB52 PUSH8 0x4DE1A2AB66EE8817 PUSH1 0xC0 SHL PUSH2 0x1B25 JUMP JUMPDEST PUSH1 0x0 PUSH1 0x14 SWAP1 SLOAD SWAP1 PUSH2 0x100 EXP SWAP1 DIV PUSH1 0xFF AND SWAP1 POP SWAP1 JUMP JUMPDEST PUSH2 0xB6F PUSH2 0x1B2B JUMP JUMPDEST PUSH2 0xB79 PUSH1 0x0 PUSH2 0x1E43 JUMP JUMPDEST JUMP JUMPDEST PUSH2 0xB8F PUSH8 0x75DA2D9241638A7D PUSH1 0xC0 SHL PUSH2 0x1B25 JUMP JUMPDEST DUP1 PUSH1 0x1 DUP1 SLOAD SWAP1 POP PUSH2 0xBAA PUSH8 0x14E6C00B2F08ABDD PUSH1 0xC0 SHL PUSH2 0x1B28 JUMP JUMPDEST PUSH2 0xBBE PUSH8 0x5D2C3FA9615EDB55 PUSH1 0xC0 SHL PUSH2 0x1B28 JUMP JUMPDEST PUSH2 0xBD2 PUSH8 0xED9087DE2553A92A PUSH1 0xC0 SHL PUSH2 0x1B28 JUMP JUMPDEST PUSH2 0xBE6 PUSH8 0xCAF78F28A40881C3 PUSH1 0xC0 SHL PUSH2 0x1B28 JUMP JUMPDEST DUP1 DUP3 LT PUSH2 0xC28 JUMPI PUSH1 0x40 MLOAD PUSH32 0x8C379A000000000000000000000000000000000000000000000000000000000 DUP2 MSTORE PUSH1 0x4 ADD PUSH2 0xC1F SWAP1 PUSH2 0x2CF0 JUMP JUMPDEST PUSH1 0x40 MLOAD DUP1 SWAP2 SUB SWAP1 REVERT JUMPDEST PUSH2 0xC3C PUSH8 0x7785617CD1685337 PUSH1 0xC0 SHL PUSH2 0x1B28 JUMP JUMPDEST PUSH2 0xC50 PUSH8 0x352C67D7623DB3D8 PUSH1 0xC0 SHL PUSH2 0x1B28 JUMP JUMPDEST PUSH2 0xC64 PUSH8 0x230CED41E1737158 PUSH1 0xC0 SHL PUSH2 0x1B25 JUMP JUMPDEST PUSH2 0xC78 PUSH8 0x40771DEFA274980E PUSH1 0xC0 SHL PUSH2 0x1B25 JUMP JUMPDEST PUSH2 0xC8C PUSH8 0xA6A021407F11C2BE PUSH1 0xC0 SHL PUSH2 0x1B25 JUMP JUMPDEST PUSH2 0xCA0 PUSH8 0x177DD824063B0EF6 PUSH1 0xC0 SHL PUSH2 0x1B25 JUMP JUMPDEST PUSH1 0x0 CALLER SWAP1 POP PUSH2 0xCB9 PUSH8 0x6B04B117549CE4D2 PUSH1 0xC0 SHL PUSH2 0x1B25 JUMP JUMPDEST PUSH2 0xCCD PUSH8 0x15437ED44196A42E PUSH1 0xC0 SHL PUSH2 0x1B25 JUMP JUMPDEST PUSH2 0xCD7 DUP5 DUP3 PUSH2 0x1F07 JUMP JUMPDEST PUSH2 0xCEB PUSH8 0x1433BC2B7624A220 PUSH1 0xC0 SHL PUSH2 0x1B25 JUMP JUMPDEST PUSH2 0xCFF PUSH8 0xC074DA0943A8EEC8 PUSH1 0xC0 SHL PUSH2 0x1B25 JUMP JUMPDEST PUSH1 0x0 PUSH1 0x1 DUP6 DUP2 SLOAD DUP2 LT PUSH2 0xD15 JUMPI PUSH2 0xD14 PUSH2 0x2D10 JUMP JUMPDEST JUMPDEST SWAP1 PUSH1 0x0 MSTORE PUSH1 0x20 PUSH1 0x0 KECCAK256 SWAP1 PUSH1 0x2 MUL ADD SWAP1 POP PUSH2 0xD39 PUSH8 0x3903A68416D60529 PUSH1 0xC0 SHL PUSH2 0x1B25 JUMP JUMPDEST PUSH2 0xD4D PUSH8 0x15A23F2AB0A74307 PUSH1 0xC0 SHL PUSH2 0x1B25 JUMP JUMPDEST PUSH32 0x21B68A0C4AC2BEB4BEDE4A50169CDEEEAFF19097E416463DA0524864702FFE44 DUP6 PUSH1 0x40 MLOAD PUSH2 0xD7C SWAP2 SWAP1 PUSH2 0x2FC9 JUMP JUMPDEST PUSH1 0x40 MLOAD DUP1 SWAP2 SUB SWAP1 LOG1 POP POP POP POP POP JUMP JUMPDEST PUSH1 0x1 DUP2 DUP2 SLOAD DUP2 LT PUSH2 0xD9B JUMPI PUSH1 0x0 DUP1 REVERT JUMPDEST SWAP1 PUSH1 0x0 MSTORE PUSH1 0x20 PUSH1 0x0 KECCAK256 SWAP1 PUSH1 0x2 MUL ADD PUSH1 0x0 SWAP2 POP SWAP1 POP DUP1 PUSH1 0x0 ADD DUP1 SLOAD PUSH2 0xDBE SWAP1 PUSH2 0x2C73 JUMP JUMPDEST DUP1 PUSH1 0x1F ADD PUSH1 0x20 DUP1 SWAP2 DIV MUL PUSH1 0x20 ADD PUSH1 0x40 MLOAD SWAP1 DUP2 ADD PUSH1 0x40 MSTORE DUP1 SWAP3 SWAP2 SWAP1 DUP2 DUP2 MSTORE PUSH1 0x20 ADD DUP3 DUP1 SLOAD PUSH2 0xDEA SWAP1 PUSH2 0x2C73 JUMP JUMPDEST DUP1 ISZERO PUSH2 0xE37 JUMPI DUP1 PUSH1 0x1F LT PUSH2 0xE0C JUMPI PUSH2 0x100 DUP1 DUP4 SLOAD DIV MUL DUP4 MSTORE SWAP2 PUSH1 0x20 ADD SWAP2 PUSH2 0xE37 JUMP JUMPDEST DUP3 ADD SWAP2 SWAP1 PUSH1 0x0 MSTORE PUSH1 0x20 PUSH1 0x0 KECCAK256 SWAP1 JUMPDEST DUP2 SLOAD DUP2 MSTORE SWAP1 PUSH1 0x1 ADD SWAP1 PUSH1 0x20 ADD DUP1 DUP4 GT PUSH2 0xE1A JUMPI DUP3 SWAP1 SUB PUSH1 0x1F AND DUP3 ADD SWAP2 JUMPDEST POP POP POP POP POP SWAP1 DUP1 PUSH1 0x1 ADD PUSH1 0x0 SWAP1 SLOAD SWAP1 PUSH2 0x100 EXP SWAP1 DIV PUSH2 0xFFFF AND SWAP1 POP DUP3 JUMP JUMPDEST PUSH2 0xE69 PUSH8 0xD1F181E31082E355 PUSH1 0xC0 SHL PUSH2 0x1B25 JUMP JUMPDEST PUSH1 0x1 DUP2 DUP2 SLOAD DUP2 LT PUSH2 0xE7D JUMPI PUSH2 0xE7C PUSH2 0x2D10 JUMP JUMPDEST JUMPDEST SWAP1 PUSH1 0x0 MSTORE PUSH1 0x20 PUSH1 0x0 KECCAK256 SWAP1 PUSH1 0x2 MUL ADD PUSH1 0x1 ADD PUSH1 0x0 SWAP1 SLOAD SWAP1 PUSH2 0x100 EXP SWAP1 DIV PUSH2 0xFFFF AND PUSH2 0xEB1 PUSH8 0xEFD080E171E32342 PUSH1 0xC0 SHL PUSH2 0x1B28 JUMP JUMPDEST PUSH2 0xEC5 PUSH8 0xF1C1E2DB156BA872 PUSH1 0xC0 SHL PUSH2 0x1B28 JUMP JUMPDEST PUSH2 0xED9 PUSH8 0x300B7AB469B06587 PUSH1 0xC0 SHL PUSH2 0x1B28 JUMP JUMPDEST PUSH2 0xEED PUSH8 0x9A28D781B5A30CBB PUSH1 0xC0 SHL PUSH2 0x1B28 JUMP JUMPDEST PUSH1 0x0 DUP2 PUSH2 0xFFFF AND GT PUSH2 0xF34 JUMPI PUSH1 0x40 MLOAD PUSH32 0x8C379A000000000000000000000000000000000000000000000000000000000 DUP2 MSTORE PUSH1 0x4 ADD PUSH2 0xF2B SWAP1 PUSH2 0x2D8B JUMP JUMPDEST PUSH1 0x40 MLOAD DUP1 SWAP2 SUB SWAP1 REVERT JUMPDEST PUSH2 0xF48 PUSH8 0x353B406A2FAAC4E6 PUSH1 0xC0 SHL PUSH2 0x1B28 JUMP JUMPDEST PUSH2 0xF5C PUSH8 0x70BA0BC8B3BEE769 PUSH1 0xC0 SHL PUSH2 0x1B28 JUMP JUMPDEST PUSH2 0xF70 PUSH8 0xAA7479E2C4DCBB9D PUSH1 0xC0 SHL PUSH2 0x1B25 JUMP JUMPDEST PUSH2 0xF84 PUSH8 0x8B774AE575256571 PUSH1 0xC0 SHL PUSH2 0x1B25 JUMP JUMPDEST DUP2 PUSH1 0x1 DUP1 SLOAD SWAP1 POP PUSH2 0xF9F PUSH8 0x14E6C00B2F08ABDD PUSH1 0xC0 SHL PUSH2 0x1B28 JUMP JUMPDEST PUSH2 0xFB3 PUSH8 0x5D2C3FA9615EDB55 PUSH1 0xC0 SHL PUSH2 0x1B28 JUMP JUMPDEST PUSH2 0xFC7 PUSH8 0xED9087DE2553A92A PUSH1 0xC0 SHL PUSH2 0x1B28 JUMP JUMPDEST PUSH2 0xFDB PUSH8 0xCAF78F28A40881C3 PUSH1 0xC0 SHL PUSH2 0x1B28 JUMP JUMPDEST DUP1 DUP3 LT PUSH2 0x101D JUMPI PUSH1 0x40 MLOAD PUSH32 0x8C379A000000000000000000000000000000000000000000000000000000000 DUP2 MSTORE PUSH1 0x4 ADD PUSH2 0x1014 SWAP1 PUSH2 0x2CF0 JUMP JUMPDEST PUSH1 0x40 MLOAD DUP1 SWAP2 SUB SWAP1 REVERT JUMPDEST PUSH2 0x1031 PUSH8 0x7785617CD1685337 PUSH1 0xC0 SHL PUSH2 0x1B28 JUMP JUMPDEST PUSH2 0x1045 PUSH8 0x352C67D7623DB3D8 PUSH1 0xC0 SHL PUSH2 0x1B28 JUMP JUMPDEST PUSH2 0x1059 PUSH8 0xE50B50FB44862737 PUSH1 0xC0 SHL PUSH2 0x1B25 JUMP JUMPDEST PUSH2 0x106D PUSH8 0x71DC22CB3996F063 PUSH1 0xC0 SHL PUSH2 0x1B25 JUMP JUMPDEST PUSH2 0x1081 PUSH8 0xFD436837353207BA PUSH1 0xC0 SHL PUSH2 0x1B25 JUMP JUMPDEST PUSH2 0x1094 PUSH7 0x8AA8EC03056BD0 PUSH1 0xC0 SHL PUSH2 0x1B25 JUMP JUMPDEST PUSH1 0x0 CALLER SWAP1 POP PUSH2 0x10AD PUSH8 0xDA2E151AC8A7D9DB PUSH1 0xC0 SHL PUSH2 0x1B25 JUMP JUMPDEST PUSH2 0x10C1 PUSH8 0xBE21D0E9622ACD08 PUSH1 0xC0 SHL PUSH2 0x1B25 JUMP JUMPDEST PUSH1 0x0 PUSH1 0x1 DUP7 DUP2 SLOAD DUP2 LT PUSH2 0x10D7 JUMPI PUSH2 0x10D6 PUSH2 0x2D10 JUMP JUMPDEST JUMPDEST SWAP1 PUSH1 0x0 MSTORE PUSH1 0x20 PUSH1 0x0 KECCAK256 SWAP1 PUSH1 0x2 MUL ADD SWAP1 POP PUSH2 0x10FB PUSH8 0x9B3D1B63E5164E04 PUSH1 0xC0 SHL PUSH2 0x1B25 JUMP JUMPDEST PUSH2 0x110F PUSH8 0x95E0D6F2C6D5035E PUSH1 0xC0 SHL PUSH2 0x1B25 JUMP JUMPDEST PUSH1 0x0 PUSH2 0x111B DUP8 DUP5 PUSH2 0x21B0 JUMP JUMPDEST SWAP1 POP PUSH2 0x1131 PUSH8 0x997E943C44821F52 PUSH1 0xC0 SHL PUSH2 0x1B25 JUMP JUMPDEST PUSH2 0x1145 PUSH8 0x9C29DE3DCBE0125 PUSH1 0xC0 SHL PUSH2 0x1B25 JUMP JUMPDEST PUSH2 0x1159 PUSH8 0x6E5277BCAA670012 PUSH1 0xC0 SHL PUSH2 0x1B25 JUMP JUMPDEST DUP1 ISZERO PUSH2 0x119A JUMPI PUSH1 0x40 MLOAD PUSH32 0x8C379A000000000000000000000000000000000000000000000000000000000 DUP2 MSTORE PUSH1 0x4 ADD PUSH2 0x1191 SWAP1 PUSH2 0x3056 JUMP JUMPDEST PUSH1 0x40 MLOAD DUP1 SWAP2 SUB SWAP1 REVERT JUMPDEST PUSH2 0x11AE PUSH8 0x1BC38FF97968542D PUSH1 0xC0 SHL PUSH2 0x1B25 JUMP JUMPDEST PUSH2 0x11C2 PUSH8 0x13A03ED8B9DD36D4 PUSH1 0xC0 SHL PUSH2 0x1B25 JUMP JUMPDEST PUSH2 0x11D6 PUSH8 0x36778F1A8620EADD PUSH1 0xC0 SHL PUSH2 0x1B25 JUMP JUMPDEST PUSH2 0x11E0 DUP8 DUP5 PUSH2 0x224A JUMP JUMPDEST PUSH2 0x11F4 PUSH8 0x34C340353ECD80D9 PUSH1 0xC0 SHL PUSH2 0x1B25 JUMP JUMPDEST DUP2 PUSH1 0x1 ADD PUSH1 0x0 DUP2 DUP2 SWAP1 SLOAD SWAP1 PUSH2 0x100 EXP SWAP1 DIV PUSH2 0xFFFF AND DUP1 SWAP3 SWAP2 SWAP1 PUSH2 0x1216 SWAP1 PUSH2 0x30A5 JUMP JUMPDEST SWAP2 SWAP1 PUSH2 0x100 EXP DUP2 SLOAD DUP2 PUSH2 0xFFFF MUL NOT AND SWAP1 DUP4 PUSH2 0xFFFF AND MUL OR SWAP1 SSTORE POP POP PUSH2 0x1245 PUSH8 0x4F799B37AD752DA0 PUSH1 0xC0 SHL PUSH2 0x1B25 JUMP JUMPDEST PUSH2 0x1259 PUSH8 0x3C47F16AA8FD6451 PUSH1 0xC0 SHL PUSH2 0x1B25 JUMP JUMPDEST PUSH32 0x60751E87AB3312710EC7D4DA85EA804D0813CA2CB843A75CC23C672E1BD3954A DUP8 DUP5 PUSH1 0x40 MLOAD PUSH2 0x128A SWAP3 SWAP2 SWAP1 PUSH2 0x30CE JUMP JUMPDEST PUSH1 0x40 MLOAD DUP1 SWAP2 SUB SWAP1 LOG1 POP POP POP POP POP POP POP JUMP JUMPDEST PUSH1 0x0 DUP1 PUSH1 0x0 SWAP1 SLOAD SWAP1 PUSH2 0x100 EXP SWAP1 DIV PUSH20 0xFFFFFFFFFFFFFFFFFFFFFFFFFFFFFFFFFFFFFFFF AND SWAP1 POP SWAP1 JUMP JUMPDEST PUSH2 0x12D8 PUSH8 0xB53EBE8D2C3ABBDA PUSH1 0xC0 SHL PUSH2 0x1B25 JUMP JUMPDEST PUSH2 0x12E0 PUSH2 0x1B2B JUMP JUMPDEST PUSH2 0x12F4 PUSH8 0x7FD94987F5981959 PUSH1 0xC0 SHL PUSH2 0x1B25 JUMP JUMPDEST PUSH2 0x1308 PUSH8 0x7C44919E1FCC41CD PUSH1 0xC0 SHL PUSH2 0x1B25 JUMP JUMPDEST DUP2 PUSH1 0x1 DUP1 SLOAD SWAP1 POP PUSH2 0x1323 PUSH8 0x14E6C00B2F08ABDD PUSH1 0xC0 SHL PUSH2 0x1B28 JUMP JUMPDEST PUSH2 0x1337 PUSH8 0x5D2C3FA9615EDB55 PUSH1 0xC0 SHL PUSH2 0x1B28 JUMP JUMPDEST PUSH2 0x134B PUSH8 0xED9087DE2553A92A PUSH1 0xC0 SHL PUSH2 0x1B28 JUMP JUMPDEST PUSH2 0x135F PUSH8 0xCAF78F28A40881C3 PUSH1 0xC0 SHL PUSH2 0x1B28 JUMP JUMPDEST DUP1 DUP3 LT PUSH2 0x13A1 JUMPI PUSH1 0x40 MLOAD PUSH32 0x8C379A000000000000000000000000000000000000000000000000000000000 DUP2 MSTORE PUSH1 0x4 ADD PUSH2 0x1398 SWAP1 PUSH2 0x2CF0 JUMP JUMPDEST PUSH1 0x40 MLOAD DUP1 SWAP2 SUB SWAP1 REVERT JUMPDEST PUSH2 0x13B5 PUSH8 0x7785617CD1685337 PUSH1 0xC0 SHL PUSH2 0x1B28 JUMP JUMPDEST PUSH2 0x13C9 PUSH8 0x352C67D7623DB3D8 PUSH1 0xC0 SHL PUSH2 0x1B28 JUMP JUMPDEST PUSH2 0x13DD PUSH8 0x835F4BE3F0E93989 PUSH1 0xC0 SHL PUSH2 0x1B25 JUMP JUMPDEST PUSH2 0x13F1 PUSH8 0xB7058506756CC221 PUSH1 0xC0 SHL PUSH2 0x1B25 JUMP JUMPDEST PUSH2 0x1405 PUSH8 0x5E302319EC9FE7DA PUSH1 0xC0 SHL PUSH2 0x1B25 JUMP JUMPDEST PUSH2 0x1419 PUSH8 0x7532384C3586529A PUSH1 0xC0 SHL PUSH2 0x1B25 JUMP JUMPDEST PUSH2 0x1423 DUP5 DUP5 PUSH2 0x1C18 JUMP JUMPDEST PUSH2 0x1437 PUSH8 0x5402F1A04E47FF21 PUSH1 0xC0 SHL PUSH2 0x1B25 JUMP JUMPDEST PUSH2 0x144B PUSH8 0x1B58BBE9B07079EE PUSH1 0xC0 SHL PUSH2 0x1B25 JUMP JUMPDEST PUSH1 0x0 PUSH1 0x1 DUP6 DUP2 SLOAD DUP2 LT PUSH2 0x1461 JUMPI PUSH2 0x1460 PUSH2 0x2D10 JUMP JUMPDEST JUMPDEST SWAP1 PUSH1 0x0 MSTORE PUSH1 0x20 PUSH1 0x0 KECCAK256 SWAP1 PUSH1 0x2 MUL ADD SWAP1 POP PUSH2 0x1485 PUSH8 0x7DE3D6E2C945A358 PUSH1 0xC0 SHL PUSH2 0x1B25 JUMP JUMPDEST PUSH2 0x1499 PUSH8 0x8A59D55C88C2C239 PUSH1 0xC0 SHL PUSH2 0x1B25 JUMP JUMPDEST PUSH32 0xF9B1D9170FBE32752353E00D62E5276B143166C75AA974030DDDFAC2895601FE DUP6 DUP3 PUSH1 0x0 ADD DUP4 PUSH1 0x1 ADD PUSH1 0x0 SWAP1 SLOAD SWAP1 PUSH2 0x100 EXP SWAP1 DIV PUSH2 0xFFFF AND PUSH1 0x40 MLOAD PUSH2 0x14E1 SWAP4 SWAP3 SWAP2 SWAP1 PUSH2 0x2F4D JUMP JUMPDEST PUSH1 0x40 MLOAD DUP1 SWAP2 SUB SWAP1 LOG1 POP POP POP POP POP JUMP JUMPDEST PUSH2 0x14F8 PUSH2 0x248E JUMP JUMPDEST PUSH2 0x150C PUSH8 0xA46B9C42B6CACCE9 PUSH1 0xC0 SHL PUSH2 0x1B25 JUMP JUMPDEST DUP2 PUSH2 0x1521 PUSH8 0xBB576304A5D5F936 PUSH1 0xC0 SHL PUSH2 0x1BA9 JUMP JUMPDEST PUSH2 0x1535 PUSH8 0x23070EE2E6F0BED0 PUSH1 0xC0 SHL PUSH2 0x1BA9 JUMP JUMPDEST PUSH2 0x1549 PUSH8 0xA58B4032AA92FA63 PUSH1 0xC0 SHL PUSH2 0x1BA9 JUMP JUMPDEST PUSH2 0x155D PUSH8 0x8E5469CA3D8C65F6 PUSH1 0xC0 SHL PUSH2 0x1BA9 JUMP JUMPDEST PUSH1 0x0 DUP2 MLOAD SUB PUSH2 0x15A1 JUMPI PUSH1 0x40 MLOAD PUSH32 0x8C379A000000000000000000000000000000000000000000000000000000000 DUP2 MSTORE PUSH1 0x4 ADD PUSH2 0x1598 SWAP1 PUSH2 0x2DF7 JUMP JUMPDEST PUSH1 0x40 MLOAD DUP1 SWAP2 SUB SWAP1 REVERT JUMPDEST PUSH2 0x15B5 PUSH8 0x31A445F74FE50F84 PUSH1 0xC0 SHL PUSH2 0x1BA9 JUMP JUMPDEST PUSH2 0x15C9 PUSH8 0xF296398E131E18FE PUSH1 0xC0 SHL PUSH2 0x1BA9 JUMP JUMPDEST PUSH2 0x15DD PUSH8 0x7177D50746CE7C99 PUSH1 0xC0 SHL PUSH2 0x1B25 JUMP JUMPDEST PUSH2 0x15F1 PUSH8 0x1BA473B8BB8159F8 PUSH1 0xC0 SHL PUSH2 0x1B25 JUMP JUMPDEST PUSH2 0x1605 PUSH8 0x4BDBB0B6A4ECA277 PUSH1 0xC0 SHL PUSH2 0x1B25 JUMP JUMPDEST PUSH2 0x1619 PUSH8 0xFC924040C9C2B0C6 PUSH1 0xC0 SHL PUSH2 0x1B25 JUMP JUMPDEST PUSH1 0x0 DUP1 PUSH1 0x3 DUP6 PUSH1 0x40 MLOAD PUSH2 0x162C SWAP2 SWAP1 PUSH2 0x2E53 JUMP JUMPDEST SWAP1 DUP2 MSTORE PUSH1 0x20 ADD PUSH1 0x40 MLOAD DUP1 SWAP2 SUB SWAP1 KECCAK256 PUSH1 0x0 ADD DUP1 SLOAD PUSH2 0x1648 SWAP1 PUSH2 0x2C73 JUMP JUMPDEST SWAP1 POP GT SWAP1 POP PUSH2 0x1661 PUSH8 0x6A7495112B2D8EB4 PUSH1 0xC0 SHL PUSH2 0x1B25 JUMP JUMPDEST PUSH2 0x1675 PUSH8 0x6B3EBD6F986A2C8E PUSH1 0xC0 SHL PUSH2 0x1B25 JUMP JUMPDEST PUSH2 0x1689 PUSH8 0xC0F9BAD4B7ABB009 PUSH1 0xC0 SHL PUSH2 0x1B25 JUMP JUMPDEST DUP1 PUSH2 0x16C9 JUMPI PUSH1 0x40 MLOAD PUSH32 0x8C379A000000000000000000000000000000000000000000000000000000000 DUP2 MSTORE PUSH1 0x4 ADD PUSH2 0x16C0 SWAP1 PUSH2 0x2CF0 JUMP JUMPDEST PUSH1 0x40 MLOAD DUP1 SWAP2 SUB SWAP1 REVERT JUMPDEST PUSH2 0x16DD PUSH8 0x22E3C2FB1490FF15 PUSH1 0xC0 SHL PUSH2 0x1B25 JUMP JUMPDEST PUSH2 0x16F1 PUSH8 0x25CB01D28CD17132 PUSH1 0xC0 SHL PUSH2 0x1B25 JUMP JUMPDEST PUSH2 0x1705 PUSH8 0x57E8299DCEFAC7FD PUSH1 0xC0 SHL PUSH2 0x1B25 JUMP JUMPDEST PUSH1 0x0 PUSH1 0x2 PUSH1 0x0 PUSH2 0x1714 DUP8 PUSH2 0x1BAC JUMP JUMPDEST DUP2 MSTORE PUSH1 0x20 ADD SWAP1 DUP2 MSTORE PUSH1 0x20 ADD PUSH1 0x0 KECCAK256 SLOAD SWAP1 POP PUSH2 0x1739 PUSH8 0xC76B592EAECB9BD2 PUSH1 0xC0 SHL PUSH2 0x1B25 JUMP JUMPDEST PUSH2 0x174D PUSH8 0xB0EBFEE88A05987B PUSH1 0xC0 SHL PUSH2 0x1B25 JUMP JUMPDEST PUSH1 0x0 PUSH1 0x1 DUP3 DUP2 SLOAD DUP2 LT PUSH2 0x1763 JUMPI PUSH2 0x1762 PUSH2 0x2D10 JUMP JUMPDEST JUMPDEST SWAP1 PUSH1 0x0 MSTORE PUSH1 0x20 PUSH1 0x0 KECCAK256 SWAP1 PUSH1 0x2 MUL ADD SWAP1 POP PUSH2 0x1787 PUSH8 0x9EDF6B866199081C PUSH1 0xC0 SHL PUSH2 0x1B25 JUMP JUMPDEST PUSH2 0x179B PUSH8 0x5E553C6346BD79FB PUSH1 0xC0 SHL PUSH2 0x1B25 JUMP JUMPDEST DUP1 PUSH1 0x40 MLOAD DUP1 PUSH1 0x40 ADD PUSH1 0x40 MSTORE SWAP1 DUP2 PUSH1 0x0 DUP3 ADD DUP1 SLOAD PUSH2 0x17B7 SWAP1 PUSH2 0x2C73 JUMP JUMPDEST DUP1 PUSH1 0x1F ADD PUSH1 0x20 DUP1 SWAP2 DIV MUL PUSH1 0x20 ADD PUSH1 0x40 MLOAD SWAP1 DUP2 ADD PUSH1 0x40 MSTORE DUP1 SWAP3 SWAP2 SWAP1 DUP2 DUP2 MSTORE PUSH1 0x20 ADD DUP3 DUP1 SLOAD PUSH2 0x17E3 SWAP1 PUSH2 0x2C73 JUMP JUMPDEST DUP1 ISZERO PUSH2 0x1830 JUMPI DUP1 PUSH1 0x1F LT PUSH2 0x1805 JUMPI PUSH2 0x100 DUP1 DUP4 SLOAD DIV MUL DUP4 MSTORE SWAP2 PUSH1 0x20 ADD SWAP2 PUSH2 0x1830 JUMP JUMPDEST DUP3 ADD SWAP2 SWAP1 PUSH1 0x0 MSTORE PUSH1 0x20 PUSH1 0x0 KECCAK256 SWAP1 JUMPDEST DUP2 SLOAD DUP2 MSTORE SWAP1 PUSH1 0x1 ADD SWAP1 PUSH1 0x20 ADD DUP1 DUP4 GT PUSH2 0x1813 JUMPI DUP3 SWAP1 SUB PUSH1 0x1F AND DUP3 ADD SWAP2 JUMPDEST POP POP POP POP POP DUP2 MSTORE PUSH1 0x20 ADD PUSH1 0x1 DUP3 ADD PUSH1 0x0 SWAP1 SLOAD SWAP1 PUSH2 0x100 EXP SWAP1 DIV PUSH2 0xFFFF AND PUSH2 0xFFFF AND PUSH2 0xFFFF AND DUP2 MSTORE POP POP SWAP5 POP POP POP POP POP SWAP2 SWAP1 POP JUMP JUMPDEST PUSH1 0x60 PUSH2 0x187A PUSH8 0x6049280B369015E3 PUSH1 0xC0 SHL PUSH2 0x1B25 JUMP JUMPDEST DUP2 PUSH1 0x1 DUP1 SLOAD SWAP1 POP PUSH2 0x1895 PUSH8 0x14E6C00B2F08ABDD PUSH1 0xC0 SHL PUSH2 0x1B28 JUMP JUMPDEST PUSH2 0x18A9 PUSH8 0x5D2C3FA9615EDB55 PUSH1 0xC0 SHL PUSH2 0x1B28 JUMP JUMPDEST PUSH2 0x18BD PUSH8 0xED9087DE2553A92A PUSH1 0xC0 SHL PUSH2 0x1B28 JUMP JUMPDEST PUSH2 0x18D1 PUSH8 0xCAF78F28A40881C3 PUSH1 0xC0 SHL PUSH2 0x1B28 JUMP JUMPDEST DUP1 DUP3 LT PUSH2 0x1913 JUMPI PUSH1 0x40 MLOAD PUSH32 0x8C379A000000000000000000000000000000000000000000000000000000000 DUP2 MSTORE PUSH1 0x4 ADD PUSH2 0x190A SWAP1 PUSH2 0x2CF0 JUMP JUMPDEST PUSH1 0x40 MLOAD DUP1 SWAP2 SUB SWAP1 REVERT JUMPDEST PUSH2 0x1927 PUSH8 0x7785617CD1685337 PUSH1 0xC0 SHL PUSH2 0x1B28 JUMP JUMPDEST PUSH2 0x193B PUSH8 0x352C67D7623DB3D8 PUSH1 0xC0 SHL PUSH2 0x1B28 JUMP JUMPDEST PUSH2 0x194F PUSH8 0x455FDF92E89C2051 PUSH1 0xC0 SHL PUSH2 0x1B25 JUMP JUMPDEST PUSH2 0x1963 PUSH8 0x8C116B3C3C1772F5 PUSH1 0xC0 SHL PUSH2 0x1B25 JUMP JUMPDEST PUSH2 0x1977 PUSH8 0xC854E109D07ED0AA PUSH1 0xC0 SHL PUSH2 0x1B25 JUMP JUMPDEST PUSH2 0x198B PUSH8 0x979808BF8750F98D PUSH1 0xC0 SHL PUSH2 0x1B25 JUMP JUMPDEST PUSH1 0x5 PUSH1 0x0 DUP6 DUP2 MSTORE PUSH1 0x20 ADD SWAP1 DUP2 MSTORE PUSH1 0x20 ADD PUSH1 0x0 KECCAK256 DUP1 SLOAD DUP1 PUSH1 0x20 MUL PUSH1 0x20 ADD PUSH1 0x40 MLOAD SWAP1 DUP2 ADD PUSH1 0x40 MSTORE DUP1 SWAP3 SWAP2 SWAP1 DUP2 DUP2 MSTORE PUSH1 0x20 ADD DUP3 DUP1 SLOAD DUP1 ISZERO PUSH2 0x1A1E JUMPI PUSH1 0x20 MUL DUP3 ADD SWAP2 SWAP1 PUSH1 0x0 MSTORE PUSH1 0x20 PUSH1 0x0 KECCAK256 SWAP1 JUMPDEST DUP2 PUSH1 0x0 SWAP1 SLOAD SWAP1 PUSH2 0x100 EXP SWAP1 DIV PUSH20 0xFFFFFFFFFFFFFFFFFFFFFFFFFFFFFFFFFFFFFFFF AND PUSH20 0xFFFFFFFFFFFFFFFFFFFFFFFFFFFFFFFFFFFFFFFF AND DUP2 MSTORE PUSH1 0x20 ADD SWAP1 PUSH1 0x1 ADD SWAP1 DUP1 DUP4 GT PUSH2 0x19D4 JUMPI JUMPDEST POP POP POP POP POP SWAP3 POP POP POP SWAP2 SWAP1 POP JUMP JUMPDEST PUSH2 0x1A34 PUSH2 0x1B2B JUMP JUMPDEST PUSH1 0x0 PUSH20 0xFFFFFFFFFFFFFFFFFFFFFFFFFFFFFFFFFFFFFFFF AND DUP2 PUSH20 0xFFFFFFFFFFFFFFFFFFFFFFFFFFFFFFFFFFFFFFFF AND SUB PUSH2 0x1AA3 JUMPI PUSH1 0x40 MLOAD PUSH32 0x8C379A000000000000000000000000000000000000000000000000000000000 DUP2 MSTORE PUSH1 0x4 ADD PUSH2 0x1A9A SWAP1 PUSH2 0x3169 JUMP JUMPDEST PUSH1 0x40 MLOAD DUP1 SWAP2 SUB SWAP1 REVERT JUMPDEST PUSH2 0x1AAC DUP2 PUSH2 0x1E43 JUMP JUMPDEST POP JUMP JUMPDEST PUSH2 0x1AC3 PUSH8 0xB635ADF16B47C671 PUSH1 0xC0 SHL PUSH2 0x1B25 JUMP JUMPDEST PUSH2 0x1ACB PUSH2 0x1B2B JUMP JUMPDEST PUSH2 0x1ADF PUSH8 0x2BC82E22B836BB62 PUSH1 0xC0 SHL PUSH2 0x1B25 JUMP JUMPDEST PUSH2 0x1AF3 PUSH8 0x6E4628216EC3D071 PUSH1 0xC0 SHL PUSH2 0x1B25 JUMP JUMPDEST PUSH2 0x1B07 PUSH8 0x5D6EBBD126B0FCA0 PUSH1 0xC0 SHL PUSH2 0x1B25 JUMP JUMPDEST DUP1 PUSH1 0x0 PUSH1 0x14 PUSH2 0x100 EXP DUP2 SLOAD DUP2 PUSH1 0xFF MUL NOT AND SWAP1 DUP4 PUSH1 0xFF AND MUL OR SWAP1 SSTORE POP POP JUMP JUMPDEST POP JUMP JUMPDEST POP JUMP JUMPDEST PUSH2 0x1B33 PUSH2 0x2395 JUMP JUMPDEST PUSH20 0xFFFFFFFFFFFFFFFFFFFFFFFFFFFFFFFFFFFFFFFF AND PUSH2 0x1B51 PUSH2 0x129B JUMP JUMPDEST PUSH20 0xFFFFFFFFFFFFFFFFFFFFFFFFFFFFFFFFFFFFFFFF AND EQ PUSH2 0x1BA7 JUMPI PUSH1 0x40 MLOAD PUSH32 0x8C379A000000000000000000000000000000000000000000000000000000000 DUP2 MSTORE PUSH1 0x4 ADD PUSH2 0x1B9E SWAP1 PUSH2 0x31D5 JUMP JUMPDEST PUSH1 0x40 MLOAD DUP1 SWAP2 SUB SWAP1 REVERT JUMPDEST JUMP JUMPDEST POP JUMP JUMPDEST PUSH1 0x0 PUSH2 0x1BC2 PUSH8 0xE52AF31FC5F4F25 PUSH1 0xC0 SHL PUSH2 0x239D JUMP JUMPDEST PUSH2 0x1BD6 PUSH8 0xF5EE7600D7F8808F PUSH1 0xC0 SHL PUSH2 0x239D JUMP JUMPDEST PUSH2 0x1BEA PUSH8 0x28F4FCB0296B8E8E PUSH1 0xC0 SHL PUSH2 0x239D JUMP JUMPDEST DUP2 PUSH1 0x40 MLOAD PUSH1 0x20 ADD PUSH2 0x1BFB SWAP2 SWAP1 PUSH2 0x2E53 JUMP JUMPDEST PUSH1 0x40 MLOAD PUSH1 0x20 DUP2 DUP4 SUB SUB DUP2 MSTORE SWAP1 PUSH1 0x40 MSTORE DUP1 MLOAD SWAP1 PUSH1 0x20 ADD KECCAK256 SWAP1 POP SWAP2 SWAP1 POP JUMP JUMPDEST PUSH2 0x1C2C PUSH8 0x2631A031B4E09942 PUSH1 0xC0 SHL PUSH2 0x239D JUMP JUMPDEST PUSH2 0x1C40 PUSH8 0x7A2F4E6965966379 PUSH1 0xC0 SHL PUSH2 0x239D JUMP JUMPDEST DUP1 PUSH1 0x1 DUP4 DUP2 SLOAD DUP2 LT PUSH2 0x1C55 JUMPI PUSH2 0x1C54 PUSH2 0x2D10 JUMP JUMPDEST JUMPDEST SWAP1 PUSH1 0x0 MSTORE PUSH1 0x20 PUSH1 0x0 KECCAK256 SWAP1 PUSH1 0x2 MUL ADD PUSH1 0x1 ADD PUSH1 0x0 PUSH2 0x100 EXP DUP2 SLOAD DUP2 PUSH2 0xFFFF MUL NOT AND SWAP1 DUP4 PUSH2 0xFFFF AND MUL OR SWAP1 SSTORE POP POP POP JUMP JUMPDEST PUSH2 0x1C98 PUSH8 0x232D86873ABF54ED PUSH1 0xC0 SHL PUSH2 0x239D JUMP JUMPDEST PUSH2 0x1CAC PUSH8 0x662264F36F52BA62 PUSH1 0xC0 SHL PUSH2 0x239D JUMP JUMPDEST PUSH2 0x1CC0 PUSH8 0xDEC03E386E04885E PUSH1 0xC0 SHL PUSH2 0x239D JUMP JUMPDEST PUSH1 0x0 PUSH1 0x40 MLOAD DUP1 PUSH1 0x40 ADD PUSH1 0x40 MSTORE DUP1 DUP5 DUP2 MSTORE PUSH1 0x20 ADD DUP4 PUSH2 0xFFFF AND DUP2 MSTORE POP SWAP1 POP PUSH2 0x1CF1 PUSH8 0xF4567011CBA13440 PUSH1 0xC0 SHL PUSH2 0x239D JUMP JUMPDEST PUSH2 0x1D05 PUSH8 0x89238F84C6E7EC57 PUSH1 0xC0 SHL PUSH2 0x239D JUMP JUMPDEST PUSH1 0x0 PUSH2 0x1D10 DUP5 PUSH2 0x1BAC JUMP JUMPDEST SWAP1 POP PUSH2 0x1D26 PUSH8 0xFB50F043DB075D9B PUSH1 0xC0 SHL PUSH2 0x239D JUMP JUMPDEST DUP5 PUSH1 0x2 PUSH1 0x0 DUP4 DUP2 MSTORE PUSH1 0x20 ADD SWAP1 DUP2 MSTORE PUSH1 0x20 ADD PUSH1 0x0 KECCAK256 DUP2 SWAP1 SSTORE POP PUSH2 0x1D52 PUSH8 0xE4DC95C9C48A6D8B PUSH1 0xC0 SHL PUSH2 0x239D JUMP JUMPDEST PUSH2 0x1D66 PUSH8 0x949164AA523869CC PUSH1 0xC0 SHL PUSH2 0x239D JUMP JUMPDEST PUSH1 0x1 DUP3 SWAP1 DUP1 PUSH1 0x1 DUP2 SLOAD ADD DUP1 DUP3 SSTORE DUP1 SWAP2 POP POP PUSH1 0x1 SWAP1 SUB SWAP1 PUSH1 0x0 MSTORE PUSH1 0x20 PUSH1 0x0 KECCAK256 SWAP1 PUSH1 0x2 MUL ADD PUSH1 0x0 SWAP1 SWAP2 SWAP1 SWAP2 SWAP1 SWAP2 POP PUSH1 0x0 DUP3 ADD MLOAD DUP2 PUSH1 0x0 ADD SWAP1 DUP2 PUSH2 0x1DA7 SWAP2 SWAP1 PUSH2 0x3382 JUMP JUMPDEST POP PUSH1 0x20 DUP3 ADD MLOAD DUP2 PUSH1 0x1 ADD PUSH1 0x0 PUSH2 0x100 EXP DUP2 SLOAD DUP2 PUSH2 0xFFFF MUL NOT AND SWAP1 DUP4 PUSH2 0xFFFF AND MUL OR SWAP1 SSTORE POP POP POP PUSH2 0x1DE1 PUSH8 0x6F189A66919C5C28 PUSH1 0xC0 SHL PUSH2 0x239D JUMP JUMPDEST DUP2 PUSH1 0x3 DUP6 PUSH1 0x40 MLOAD PUSH2 0x1DF2 SWAP2 SWAP1 PUSH2 0x2E53 JUMP JUMPDEST SWAP1 DUP2 MSTORE PUSH1 0x20 ADD PUSH1 0x40 MLOAD DUP1 SWAP2 SUB SWAP1 KECCAK256 PUSH1 0x0 DUP3 ADD MLOAD DUP2 PUSH1 0x0 ADD SWAP1 DUP2 PUSH2 0x1E15 SWAP2 SWAP1 PUSH2 0x3382 JUMP JUMPDEST POP PUSH1 0x20 DUP3 ADD MLOAD DUP2 PUSH1 0x1 ADD PUSH1 0x0 PUSH2 0x100 EXP DUP2 SLOAD DUP2 PUSH2 0xFFFF MUL NOT AND SWAP1 DUP4 PUSH2 0xFFFF AND MUL OR SWAP1 SSTORE POP SWAP1 POP POP POP POP POP POP POP JUMP JUMPDEST PUSH1 0x0 DUP1 PUSH1 0x0 SWAP1 SLOAD SWAP1 PUSH2 0x100 EXP SWAP1 DIV PUSH20 0xFFFFFFFFFFFFFFFFFFFFFFFFFFFFFFFFFFFFFFFF AND SWAP1 POP DUP2 PUSH1 0x0 DUP1 PUSH2 0x100 EXP DUP2 SLOAD DUP2 PUSH20 0xFFFFFFFFFFFFFFFFFFFFFFFFFFFFFFFFFFFFFFFF MUL NOT AND SWAP1 DUP4 PUSH20 0xFFFFFFFFFFFFFFFFFFFFFFFFFFFFFFFFFFFFFFFF AND MUL OR SWAP1 SSTORE POP DUP2 PUSH20 0xFFFFFFFFFFFFFFFFFFFFFFFFFFFFFFFFFFFFFFFF AND DUP2 PUSH20 0xFFFFFFFFFFFFFFFFFFFFFFFFFFFFFFFFFFFFFFFF AND PUSH32 0x8BE0079C531659141344CD1FD0A4F28419497F9722A3DAAFE3B4186F6B6457E0 PUSH1 0x40 MLOAD PUSH1 0x40 MLOAD DUP1 SWAP2 SUB SWAP1 LOG3 POP POP JUMP JUMPDEST PUSH2 0x1F1B PUSH8 0xC4CEA4FAD77D6757 PUSH1 0xC0 SHL PUSH2 0x239D JUMP JUMPDEST PUSH2 0x1F2F PUSH8 0x99ED310F5D85DBD8 PUSH1 0xC0 SHL PUSH2 0x239D JUMP JUMPDEST PUSH2 0x1F43 PUSH8 0x84D08929C8C26822 PUSH1 0xC0 SHL PUSH2 0x239D JUMP JUMPDEST PUSH1 0x0 DUP1 PUSH1 0x4 PUSH1 0x0 DUP5 PUSH20 0xFFFFFFFFFFFFFFFFFFFFFFFFFFFFFFFFFFFFFFFF AND PUSH20 0xFFFFFFFFFFFFFFFFFFFFFFFFFFFFFFFFFFFFFFFF AND DUP2 MSTORE PUSH1 0x20 ADD SWAP1 DUP2 MSTORE PUSH1 0x20 ADD PUSH1 0x0 KECCAK256 PUSH1 0x0 DUP6 DUP2 MSTORE PUSH1 0x20 ADD SWAP1 DUP2 MSTORE PUSH1 0x20 ADD PUSH1 0x0 KECCAK256 SLOAD EQ ISZERO SWAP1 POP PUSH2 0x1FAF PUSH8 0x72D274DE7B6A902B PUSH1 0xC0 SHL PUSH2 0x239D JUMP JUMPDEST PUSH2 0x1FC3 PUSH8 0x5470BBA0D6BCC095 PUSH1 0xC0 SHL PUSH2 0x239D JUMP JUMPDEST PUSH1 0x0 PUSH2 0x201E PUSH1 0x4 PUSH1 0x0 DUP6 PUSH20 0xFFFFFFFFFFFFFFFFFFFFFFFFFFFFFFFFFFFFFFFF AND PUSH20 0xFFFFFFFFFFFFFFFFFFFFFFFFFFFFFFFFFFFFFFFF AND DUP2 MSTORE PUSH1 0x20 ADD SWAP1 DUP2 MSTORE PUSH1 0x20 ADD PUSH1 0x0 KECCAK256 PUSH1 0x0 DUP7 DUP2 MSTORE PUSH1 0x20 ADD SWAP1 DUP2 MSTORE PUSH1 0x20 ADD PUSH1 0x0 KECCAK256 SLOAD PUSH2 0x23A0 JUMP JUMPDEST SWAP1 POP PUSH2 0x2034 PUSH8 0x4BFE076463620071 PUSH1 0xC0 SHL PUSH2 0x239D JUMP JUMPDEST PUSH2 0x2048 PUSH8 0x3C854C509489DA0D PUSH1 0xC0 SHL PUSH2 0x239D JUMP JUMPDEST PUSH2 0x205C PUSH8 0x676233095160DD0F PUSH1 0xC0 SHL PUSH2 0x239D JUMP JUMPDEST DUP1 PUSH2 0x209C JUMPI PUSH1 0x40 MLOAD PUSH32 0x8C379A000000000000000000000000000000000000000000000000000000000 DUP2 MSTORE PUSH1 0x4 ADD PUSH2 0x2093 SWAP1 PUSH2 0x34C6 JUMP JUMPDEST PUSH1 0x40 MLOAD DUP1 SWAP2 SUB SWAP1 REVERT JUMPDEST PUSH2 0x20B0 PUSH8 0xC884EF697A29C7E4 PUSH1 0xC0 SHL PUSH2 0x239D JUMP JUMPDEST PUSH2 0x20C4 PUSH8 0x2D3595C7F2798B31 PUSH1 0xC0 SHL PUSH2 0x239D JUMP JUMPDEST PUSH2 0x20D8 PUSH8 0xB4F3E49D56C117F8 PUSH1 0xC0 SHL PUSH2 0x239D JUMP JUMPDEST PUSH2 0x20EC PUSH8 0x6D16F1E0227580B2 PUSH1 0xC0 SHL PUSH2 0x239D JUMP JUMPDEST DUP2 PUSH2 0x212C JUMPI PUSH1 0x40 MLOAD PUSH32 0x8C379A000000000000000000000000000000000000000000000000000000000 DUP2 MSTORE PUSH1 0x4 ADD PUSH2 0x2123 SWAP1 PUSH2 0x3558 JUMP JUMPDEST PUSH1 0x40 MLOAD DUP1 SWAP2 SUB SWAP1 REVERT JUMPDEST PUSH2 0x2140 PUSH8 0x5490258119E2442D PUSH1 0xC0 SHL PUSH2 0x239D JUMP JUMPDEST PUSH2 0x2154 PUSH8 0xB83483119A22563F PUSH1 0xC0 SHL PUSH2 0x239D JUMP JUMPDEST PUSH1 0x0 PUSH1 0x4 PUSH1 0x0 DUP6 PUSH20 0xFFFFFFFFFFFFFFFFFFFFFFFFFFFFFFFFFFFFFFFF AND PUSH20 0xFFFFFFFFFFFFFFFFFFFFFFFFFFFFFFFFFFFFFFFF AND DUP2 MSTORE PUSH1 0x20 ADD SWAP1 DUP2 MSTORE PUSH1 0x20 ADD PUSH1 0x0 KECCAK256 PUSH1 0x0 DUP7 DUP2 MSTORE PUSH1 0x20 ADD SWAP1 DUP2 MSTORE PUSH1 0x20 ADD PUSH1 0x0 KECCAK256 DUP2 SWAP1 SSTORE POP POP POP POP POP JUMP JUMPDEST PUSH1 0x0 PUSH2 0x21C6 PUSH8 0x9F3B704A8D02AA87 PUSH1 0xC0 SHL PUSH2 0x239D JUMP JUMPDEST PUSH2 0x21DA PUSH8 0xFBC91C323EB1D7E6 PUSH1 0xC0 SHL PUSH2 0x239D JUMP JUMPDEST PUSH2 0x21EE PUSH8 0xFFBFC60571F676D0 PUSH1 0xC0 SHL PUSH2 0x239D JUMP JUMPDEST PUSH1 0x0 PUSH1 0x4 PUSH1 0x0 DUP5 PUSH20 0xFFFFFFFFFFFFFFFFFFFFFFFFFFFFFFFFFFFFFFFF AND PUSH20 0xFFFFFFFFFFFFFFFFFFFFFFFFFFFFFFFFFFFFFFFF AND DUP2 MSTORE PUSH1 0x20 ADD SWAP1 DUP2 MSTORE PUSH1 0x20 ADD PUSH1 0x0 KECCAK256 PUSH1 0x0 DUP6 DUP2 MSTORE PUSH1 0x20 ADD SWAP1 DUP2 MSTORE PUSH1 0x20 ADD PUSH1 0x0 KECCAK256 SLOAD GT SWAP1 POP SWAP3 SWAP2 POP POP JUMP JUMPDEST PUSH2 0x225E PUSH8 0x46AE058AEC1D558E PUSH1 0xC0 SHL PUSH2 0x239D JUMP JUMPDEST PUSH2 0x2272 PUSH8 0xB7AEE5142DF18F0B PUSH1 0xC0 SHL PUSH2 0x239D JUMP JUMPDEST PUSH2 0x2286 PUSH8 0x4A0066ECC650A1EB PUSH1 0xC0 SHL PUSH2 0x239D JUMP JUMPDEST PUSH1 0x0 NUMBER SWAP1 POP PUSH2 0x229F PUSH8 0xF00B319E011678BB PUSH1 0xC0 SHL PUSH2 0x239D JUMP JUMPDEST DUP1 PUSH1 0x4 PUSH1 0x0 DUP5 PUSH20 0xFFFFFFFFFFFFFFFFFFFFFFFFFFFFFFFFFFFFFFFF AND PUSH20 0xFFFFFFFFFFFFFFFFFFFFFFFFFFFFFFFFFFFFFFFF AND DUP2 MSTORE PUSH1 0x20 ADD SWAP1 DUP2 MSTORE PUSH1 0x20 ADD PUSH1 0x0 KECCAK256 PUSH1 0x0 DUP6 DUP2 MSTORE PUSH1 0x20 ADD SWAP1 DUP2 MSTORE PUSH1 0x20 ADD PUSH1 0x0 KECCAK256 DUP2 SWAP1 SSTORE POP PUSH2 0x2308 PUSH8 0xD6B99E913272F48F PUSH1 0xC0 SHL PUSH2 0x239D JUMP JUMPDEST PUSH2 0x231C PUSH8 0x36F9E478136A5A8E PUSH1 0xC0 SHL PUSH2 0x239D JUMP JUMPDEST PUSH1 0x5 PUSH1 0x0 DUP5 DUP2 MSTORE PUSH1 0x20 ADD SWAP1 DUP2 MSTORE PUSH1 0x20 ADD PUSH1 0x0 KECCAK256 DUP3 SWAP1 DUP1 PUSH1 0x1 DUP2 SLOAD ADD DUP1 DUP3 SSTORE DUP1 SWAP2 POP POP PUSH1 0x1 SWAP1 SUB SWAP1 PUSH1 0x0 MSTORE PUSH1 0x20 PUSH1 0x0 KECCAK256 ADD PUSH1 0x0 SWAP1 SWAP2 SWAP1 SWAP2 SWAP1 SWAP2 PUSH2 0x100 EXP DUP2 SLOAD DUP2 PUSH20 0xFFFFFFFFFFFFFFFFFFFFFFFFFFFFFFFFFFFFFFFF MUL NOT AND SWAP1 DUP4 PUSH20 0xFFFFFFFFFFFFFFFFFFFFFFFFFFFFFFFFFFFFFFFF AND MUL OR SWAP1 SSTORE POP POP POP POP JUMP JUMPDEST PUSH1 0x0 CALLER SWAP1 POP SWAP1 JUMP JUMPDEST POP JUMP JUMPDEST PUSH1 0x0 PUSH2 0x23B6 PUSH8 0x78E0BCA069D029F1 PUSH1 0xC0 SHL PUSH2 0x239D JUMP JUMPDEST PUSH2 0x23CA PUSH8 0x7EA6CA17949AF29E PUSH1 0xC0 SHL PUSH2 0x239D JUMP JUMPDEST PUSH2 0x23DE PUSH8 0x6736C254FE20F127 PUSH1 0xC0 SHL PUSH2 0x239D JUMP JUMPDEST NUMBER PUSH1 0x0 PUSH1 0x14 SWAP1 SLOAD SWAP1 PUSH2 0x100 EXP SWAP1 DIV PUSH1 0xFF AND PUSH1 0xFF AND DUP4 PUSH2 0x23FD SWAP2 SWAP1 PUSH2 0x3578 JUMP JUMPDEST GT ISZERO PUSH2 0x2448 JUMPI PUSH2 0x2417 PUSH8 0x65B6468FE6A419FD PUSH1 0xC0 SHL PUSH2 0x239D JUMP JUMPDEST PUSH2 0x242B PUSH8 0x2498EE232F012B9A PUSH1 0xC0 SHL PUSH2 0x239D JUMP JUMPDEST PUSH2 0x243F PUSH8 0x52FAEF083E55DF02 PUSH1 0xC0 SHL PUSH2 0x239D JUMP JUMPDEST PUSH1 0x1 SWAP1 POP PUSH2 0x2489 JUMP JUMPDEST PUSH2 0x245C PUSH8 0xFC820F9464FF40B0 PUSH1 0xC0 SHL PUSH2 0x239D JUMP JUMPDEST PUSH2 0x2470 PUSH8 0x6BAC576348A2CC65 PUSH1 0xC0 SHL PUSH2 0x239D JUMP JUMPDEST PUSH2 0x2484 PUSH8 0xBDBCDB5B195B9E89 PUSH1 0xC0 SHL PUSH2 0x239D JUMP JUMPDEST PUSH1 0x0 SWAP1 POP JUMPDEST SWAP2 SWAP1 POP JUMP JUMPDEST PUSH1 0x40 MLOAD DUP1 PUSH1 0x40 ADD PUSH1 0x40 MSTORE DUP1 PUSH1 0x60 DUP2 MSTORE PUSH1 0x20 ADD PUSH1 0x0 PUSH2 0xFFFF AND DUP2 MSTORE POP SWAP1 JUMP JUMPDEST PUSH1 0x0 DUP2 MLOAD SWAP1 POP SWAP2 SWAP1 POP JUMP JUMPDEST PUSH1 0x0 DUP3 DUP3 MSTORE PUSH1 0x20 DUP3 ADD SWAP1 POP SWAP3 SWAP2 POP POP JUMP JUMPDEST PUSH1 0x0 DUP2 SWAP1 POP PUSH1 0x20 DUP3 ADD SWAP1 POP SWAP2 SWAP1 POP JUMP JUMPDEST PUSH1 0x0 DUP2 MLOAD SWAP1 POP SWAP2 SWAP1 POP JUMP JUMPDEST PUSH1 0x0 DUP3 DUP3 MSTORE PUSH1 0x20 DUP3 ADD SWAP1 POP SWAP3 SWAP2 POP POP JUMP JUMPDEST PUSH1 0x0 JUMPDEST DUP4 DUP2 LT ISZERO PUSH2 0x2512 JUMPI DUP1 DUP3 ADD MLOAD DUP2 DUP5 ADD MSTORE PUSH1 0x20 DUP2 ADD SWAP1 POP PUSH2 0x24F7 JUMP JUMPDEST PUSH1 0x0 DUP5 DUP5 ADD MSTORE POP POP POP POP JUMP JUMPDEST PUSH1 0x0 PUSH1 0x1F NOT PUSH1 0x1F DUP4 ADD AND SWAP1 POP SWAP2 SWAP1 POP JUMP JUMPDEST PUSH1 0x0 PUSH2 0x253A DUP3 PUSH2 0x24D8 JUMP JUMPDEST PUSH2 0x2544 DUP2 DUP6 PUSH2 0x24E3 JUMP JUMPDEST SWAP4 POP PUSH2 0x2554 DUP2 DUP6 PUSH1 0x20 DUP7 ADD PUSH2 0x24F4 JUMP JUMPDEST PUSH2 0x255D DUP2 PUSH2 0x251E JUMP JUMPDEST DUP5 ADD SWAP2 POP POP SWAP3 SWAP2 POP POP JUMP JUMPDEST PUSH1 0x0 PUSH2 0xFFFF DUP3 AND SWAP1 POP SWAP2 SWAP1 POP JUMP JUMPDEST PUSH2 0x257F DUP2 PUSH2 0x2568 JUMP JUMPDEST DUP3 MSTORE POP POP JUMP JUMPDEST PUSH1 0x0 PUSH1 0x40 DUP4 ADD PUSH1 0x0 DUP4 ADD MLOAD DUP5 DUP3 SUB PUSH1 0x0 DUP7 ADD MSTORE PUSH2 0x25A2 DUP3 DUP3 PUSH2 0x252F JUMP JUMPDEST SWAP2 POP POP PUSH1 0x20 DUP4 ADD MLOAD PUSH2 0x25B7 PUSH1 0x20 DUP7 ADD DUP3 PUSH2 0x2576 JUMP JUMPDEST POP DUP1 SWAP2 POP POP SWAP3 SWAP2 POP POP JUMP JUMPDEST PUSH1 0x0 PUSH2 0x25CE DUP4 DUP4 PUSH2 0x2585 JUMP JUMPDEST SWAP1 POP SWAP3 SWAP2 POP POP JUMP JUMPDEST PUSH1 0x0 PUSH1 0x20 DUP3 ADD SWAP1 POP SWAP2 SWAP1 POP JUMP JUMPDEST PUSH1 0x0 PUSH2 0x25EE DUP3 PUSH2 0x24AC JUMP JUMPDEST PUSH2 0x25F8 DUP2 DUP6 PUSH2 0x24B7 JUMP JUMPDEST SWAP4 POP DUP4 PUSH1 0x20 DUP3 MUL DUP6 ADD PUSH2 0x260A DUP6 PUSH2 0x24C8 JUMP JUMPDEST DUP1 PUSH1 0x0 JUMPDEST DUP6 DUP2 LT ISZERO PUSH2 0x2646 JUMPI DUP5 DUP5 SUB DUP10 MSTORE DUP2 MLOAD PUSH2 0x2627 DUP6 DUP3 PUSH2 0x25C2 JUMP JUMPDEST SWAP5 POP PUSH2 0x2632 DUP4 PUSH2 0x25D6 JUMP JUMPDEST SWAP3 POP PUSH1 0x20 DUP11 ADD SWAP10 POP POP PUSH1 0x1 DUP2 ADD SWAP1 POP PUSH2 0x260E JUMP JUMPDEST POP DUP3 SWAP8 POP DUP8 SWAP6 POP POP POP POP POP POP SWAP3 SWAP2 POP POP JUMP JUMPDEST PUSH1 0x0 PUSH1 0x20 DUP3 ADD SWAP1 POP DUP2 DUP2 SUB PUSH1 0x0 DUP4 ADD MSTORE PUSH2 0x2672 DUP2 DUP5 PUSH2 0x25E3 JUMP JUMPDEST SWAP1 POP SWAP3 SWAP2 POP POP JUMP JUMPDEST PUSH1 0x0 PUSH1 0x40 MLOAD SWAP1 POP SWAP1 JUMP JUMPDEST PUSH1 0x0 DUP1 REVERT JUMPDEST PUSH1 0x0 DUP1 REVERT JUMPDEST PUSH1 0x0 DUP2 SWAP1 POP SWAP2 SWAP1 POP JUMP JUMPDEST PUSH2 0x26A1 DUP2 PUSH2 0x268E JUMP JUMPDEST DUP2 EQ PUSH2 0x26AC JUMPI PUSH1 0x0 DUP1 REVERT JUMPDEST POP JUMP JUMPDEST PUSH1 0x0 DUP2 CALLDATALOAD SWAP1 POP PUSH2 0x26BE DUP2 PUSH2 0x2698 JUMP JUMPDEST SWAP3 SWAP2 POP POP JUMP JUMPDEST PUSH1 0x0 PUSH1 0x20 DUP3 DUP5 SUB SLT ISZERO PUSH2 0x26DA JUMPI PUSH2 0x26D9 PUSH2 0x2684 JUMP JUMPDEST JUMPDEST PUSH1 0x0 PUSH2 0x26E8 DUP5 DUP3 DUP6 ADD PUSH2 0x26AF JUMP JUMPDEST SWAP2 POP POP SWAP3 SWAP2 POP POP JUMP JUMPDEST PUSH1 0x0 PUSH1 0x40 DUP4 ADD PUSH1 0x0 DUP4 ADD MLOAD DUP5 DUP3 SUB PUSH1 0x0 DUP7 ADD MSTORE PUSH2 0x270E DUP3 DUP3 PUSH2 0x252F JUMP JUMPDEST SWAP2 POP POP PUSH1 0x20 DUP4 ADD MLOAD PUSH2 0x2723 PUSH1 0x20 DUP7 ADD DUP3 PUSH2 0x2576 JUMP JUMPDEST POP DUP1 SWAP2 POP POP SWAP3 SWAP2 POP POP JUMP JUMPDEST PUSH1 0x0 PUSH1 0x20 DUP3 ADD SWAP1 POP DUP2 DUP2 SUB PUSH1 0x0 DUP4 ADD MSTORE PUSH2 0x2748 DUP2 DUP5 PUSH2 0x26F1 JUMP JUMPDEST SWAP1 POP SWAP3 SWAP2 POP POP JUMP JUMPDEST PUSH1 0x0 DUP1 REVERT JUMPDEST PUSH1 0x0 DUP1 REVERT JUMPDEST PUSH32 0x4E487B7100000000000000000000000000000000000000000000000000000000 PUSH1 0x0 MSTORE PUSH1 0x41 PUSH1 0x4 MSTORE PUSH1 0x24 PUSH1 0x0 REVERT JUMPDEST PUSH2 0x2792 DUP3 PUSH2 0x251E JUMP JUMPDEST DUP2 ADD DUP2 DUP2 LT PUSH8 0xFFFFFFFFFFFFFFFF DUP3 GT OR ISZERO PUSH2 0x27B1 JUMPI PUSH2 0x27B0 PUSH2 0x275A JUMP JUMPDEST JUMPDEST DUP1 PUSH1 0x40 MSTORE POP POP POP JUMP JUMPDEST PUSH1 0x0 PUSH2 0x27C4 PUSH2 0x267A JUMP JUMPDEST SWAP1 POP PUSH2 0x27D0 DUP3 DUP3 PUSH2 0x2789 JUMP JUMPDEST SWAP2 SWAP1 POP JUMP JUMPDEST PUSH1 0x0 PUSH8 0xFFFFFFFFFFFFFFFF DUP3 GT ISZERO PUSH2 0x27F0 JUMPI PUSH2 0x27EF PUSH2 0x275A JUMP JUMPDEST JUMPDEST PUSH2 0x27F9 DUP3 PUSH2 0x251E JUMP JUMPDEST SWAP1 POP PUSH1 0x20 DUP2 ADD SWAP1 POP SWAP2 SWAP1 POP JUMP JUMPDEST DUP3 DUP2 DUP4 CALLDATACOPY PUSH1 0x0 DUP4 DUP4 ADD MSTORE POP POP POP JUMP JUMPDEST PUSH1 0x0 PUSH2 0x2828 PUSH2 0x2823 DUP5 PUSH2 0x27D5 JUMP JUMPDEST PUSH2 0x27BA JUMP JUMPDEST SWAP1 POP DUP3 DUP2 MSTORE PUSH1 0x20 DUP2 ADD DUP5 DUP5 DUP5 ADD GT ISZERO PUSH2 0x2844 JUMPI PUSH2 0x2843 PUSH2 0x2755 JUMP JUMPDEST JUMPDEST PUSH2 0x284F DUP5 DUP3 DUP6 PUSH2 0x2806 JUMP JUMPDEST POP SWAP4 SWAP3 POP POP POP JUMP JUMPDEST PUSH1 0x0 DUP3 PUSH1 0x1F DUP4 ADD SLT PUSH2 0x286C JUMPI PUSH2 0x286B PUSH2 0x2750 JUMP JUMPDEST JUMPDEST DUP2 CALLDATALOAD PUSH2 0x287C DUP5 DUP3 PUSH1 0x20 DUP7 ADD PUSH2 0x2815 JUMP JUMPDEST SWAP2 POP POP SWAP3 SWAP2 POP POP JUMP JUMPDEST PUSH2 0x288E DUP2 PUSH2 0x2568 JUMP JUMPDEST DUP2 EQ PUSH2 0x2899 JUMPI PUSH1 0x0 DUP1 REVERT JUMPDEST POP JUMP JUMPDEST PUSH1 0x0 DUP2 CALLDATALOAD SWAP1 POP PUSH2 0x28AB DUP2 PUSH2 0x2885 JUMP JUMPDEST SWAP3 SWAP2 POP POP JUMP JUMPDEST PUSH1 0x0 DUP1 PUSH1 0x40 DUP4 DUP6 SUB SLT ISZERO PUSH2 0x28C8 JUMPI PUSH2 0x28C7 PUSH2 0x2684 JUMP JUMPDEST JUMPDEST PUSH1 0x0 DUP4 ADD CALLDATALOAD PUSH8 0xFFFFFFFFFFFFFFFF DUP2 GT ISZERO PUSH2 0x28E6 JUMPI PUSH2 0x28E5 PUSH2 0x2689 JUMP JUMPDEST JUMPDEST PUSH2 0x28F2 DUP6 DUP3 DUP7 ADD PUSH2 0x2857 JUMP JUMPDEST SWAP3 POP POP PUSH1 0x20 PUSH2 0x2903 DUP6 DUP3 DUP7 ADD PUSH2 0x289C JUMP JUMPDEST SWAP2 POP POP SWAP3 POP SWAP3 SWAP1 POP JUMP JUMPDEST PUSH1 0x0 PUSH1 0xFF DUP3 AND SWAP1 POP SWAP2 SWAP1 POP JUMP JUMPDEST PUSH2 0x2923 DUP2 PUSH2 0x290D JUMP JUMPDEST DUP3 MSTORE POP POP JUMP JUMPDEST PUSH1 0x0 PUSH1 0x20 DUP3 ADD SWAP1 POP PUSH2 0x293E PUSH1 0x0 DUP4 ADD DUP5 PUSH2 0x291A JUMP JUMPDEST SWAP3 SWAP2 POP POP JUMP JUMPDEST PUSH1 0x0 DUP3 DUP3 MSTORE PUSH1 0x20 DUP3 ADD SWAP1 POP SWAP3 SWAP2 POP POP JUMP JUMPDEST PUSH1 0x0 PUSH2 0x2960 DUP3 PUSH2 0x24D8 JUMP JUMPDEST PUSH2 0x296A DUP2 DUP6 PUSH2 0x2944 JUMP JUMPDEST SWAP4 POP PUSH2 0x297A DUP2 DUP6 PUSH1 0x20 DUP7 ADD PUSH2 0x24F4 JUMP JUMPDEST PUSH2 0x2983 DUP2 PUSH2 0x251E JUMP JUMPDEST DUP5 ADD SWAP2 POP POP SWAP3 SWAP2 POP POP JUMP JUMPDEST PUSH2 0x2997 DUP2 PUSH2 0x2568 JUMP JUMPDEST DUP3 MSTORE POP POP JUMP JUMPDEST PUSH1 0x0 PUSH1 0x40 DUP3 ADD SWAP1 POP DUP2 DUP2 SUB PUSH1 0x0 DUP4 ADD MSTORE PUSH2 0x29B7 DUP2 DUP6 PUSH2 0x2955 JUMP JUMPDEST SWAP1 POP PUSH2 0x29C6 PUSH1 0x20 DUP4 ADD DUP5 PUSH2 0x298E JUMP JUMPDEST SWAP4 SWAP3 POP POP POP JUMP JUMPDEST PUSH1 0x0 PUSH20 0xFFFFFFFFFFFFFFFFFFFFFFFFFFFFFFFFFFFFFFFF DUP3 AND SWAP1 POP SWAP2 SWAP1 POP JUMP JUMPDEST PUSH1 0x0 PUSH2 0x29F8 DUP3 PUSH2 0x29CD JUMP JUMPDEST SWAP1 POP SWAP2 SWAP1 POP JUMP JUMPDEST PUSH2 0x2A08 DUP2 PUSH2 0x29ED JUMP JUMPDEST DUP3 MSTORE POP POP JUMP JUMPDEST PUSH1 0x0 PUSH1 0x20 DUP3 ADD SWAP1 POP PUSH2 0x2A23 PUSH1 0x0 DUP4 ADD DUP5 PUSH2 0x29FF JUMP JUMPDEST SWAP3 SWAP2 POP POP JUMP JUMPDEST PUSH1 0x0 DUP1 PUSH1 0x40 DUP4 DUP6 SUB SLT ISZERO PUSH2 0x2A40 JUMPI PUSH2 0x2A3F PUSH2 0x2684 JUMP JUMPDEST JUMPDEST PUSH1 0x0 PUSH2 0x2A4E DUP6 DUP3 DUP7 ADD PUSH2 0x26AF JUMP JUMPDEST SWAP3 POP POP PUSH1 0x20 PUSH2 0x2A5F DUP6 DUP3 DUP7 ADD PUSH2 0x289C JUMP JUMPDEST SWAP2 POP POP SWAP3 POP SWAP3 SWAP1 POP JUMP JUMPDEST PUSH1 0x0 PUSH1 0x20 DUP3 DUP5 SUB SLT ISZERO PUSH2 0x2A7F JUMPI PUSH2 0x2A7E PUSH2 0x2684 JUMP JUMPDEST JUMPDEST PUSH1 0x0 DUP3 ADD CALLDATALOAD PUSH8 0xFFFFFFFFFFFFFFFF DUP2 GT ISZERO PUSH2 0x2A9D JUMPI PUSH2 0x2A9C PUSH2 0x2689 JUMP JUMPDEST JUMPDEST PUSH2 0x2AA9 DUP5 DUP3 DUP6 ADD PUSH2 0x2857 JUMP JUMPDEST SWAP2 POP POP SWAP3 SWAP2 POP POP JUMP JUMPDEST PUSH1 0x0 DUP2 MLOAD SWAP1 POP SWAP2 SWAP1 POP JUMP JUMPDEST PUSH1 0x0 DUP3 DUP3 MSTORE PUSH1 0x20 DUP3 ADD SWAP1 POP SWAP3 SWAP2 POP POP JUMP JUMPDEST PUSH1 0x0 DUP2 SWAP1 POP PUSH1 0x20 DUP3 ADD SWAP1 POP SWAP2 SWAP1 POP JUMP JUMPDEST PUSH2 0x2AE7 DUP2 PUSH2 0x29ED JUMP JUMPDEST DUP3 MSTORE POP POP JUMP JUMPDEST PUSH1 0x0 PUSH2 0x2AF9 DUP4 DUP4 PUSH2 0x2ADE JUMP JUMPDEST PUSH1 0x20 DUP4 ADD SWAP1 POP SWAP3 SWAP2 POP POP JUMP JUMPDEST PUSH1 0x0 PUSH1 0x20 DUP3 ADD SWAP1 POP SWAP2 SWAP1 POP JUMP JUMPDEST PUSH1 0x0 PUSH2 0x2B1D DUP3 PUSH2 0x2AB2 JUMP JUMPDEST PUSH2 0x2B27 DUP2 DUP6 PUSH2 0x2ABD JUMP JUMPDEST SWAP4 POP PUSH2 0x2B32 DUP4 PUSH2 0x2ACE JUMP JUMPDEST DUP1 PUSH1 0x0 JUMPDEST DUP4 DUP2 LT ISZERO PUSH2 0x2B63 JUMPI DUP2 MLOAD PUSH2 0x2B4A DUP9 DUP3 PUSH2 0x2AED JUMP JUMPDEST SWAP8 POP PUSH2 0x2B55 DUP4 PUSH2 0x2B05 JUMP JUMPDEST SWAP3 POP POP PUSH1 0x1 DUP2 ADD SWAP1 POP PUSH2 0x2B36 JUMP JUMPDEST POP DUP6 SWAP4 POP POP POP POP SWAP3 SWAP2 POP POP JUMP JUMPDEST PUSH1 0x0 PUSH1 0x20 DUP3 ADD SWAP1 POP DUP2 DUP2 SUB PUSH1 0x0 DUP4 ADD MSTORE PUSH2 0x2B8A DUP2 DUP5 PUSH2 0x2B12 JUMP JUMPDEST SWAP1 POP SWAP3 SWAP2 POP POP JUMP JUMPDEST PUSH2 0x2B9B DUP2 PUSH2 0x29ED JUMP JUMPDEST DUP2 EQ PUSH2 0x2BA6 JUMPI PUSH1 0x0 DUP1 REVERT JUMPDEST POP JUMP JUMPDEST PUSH1 0x0 DUP2 CALLDATALOAD SWAP1 POP PUSH2 0x2BB8 DUP2 PUSH2 0x2B92 JUMP JUMPDEST SWAP3 SWAP2 POP POP JUMP JUMPDEST PUSH1 0x0 PUSH1 0x20 DUP3 DUP5 SUB SLT ISZERO PUSH2 0x2BD4 JUMPI PUSH2 0x2BD3 PUSH2 0x2684 JUMP JUMPDEST JUMPDEST PUSH1 0x0 PUSH2 0x2BE2 DUP5 DUP3 DUP6 ADD PUSH2 0x2BA9 JUMP JUMPDEST SWAP2 POP POP SWAP3 SWAP2 POP POP JUMP JUMPDEST PUSH2 0x2BF4 DUP2 PUSH2 0x290D JUMP JUMPDEST DUP2 EQ PUSH2 0x2BFF JUMPI PUSH1 0x0 DUP1 REVERT JUMPDEST POP JUMP JUMPDEST PUSH1 0x0 DUP2 CALLDATALOAD SWAP1 POP PUSH2 0x2C11 DUP2 PUSH2 0x2BEB JUMP JUMPDEST SWAP3 SWAP2 POP POP JUMP JUMPDEST PUSH1 0x0 PUSH1 0x20 DUP3 DUP5 SUB SLT ISZERO PUSH2 0x2C2D JUMPI PUSH2 0x2C2C PUSH2 0x2684 JUMP JUMPDEST JUMPDEST PUSH1 0x0 PUSH2 0x2C3B DUP5 DUP3 DUP6 ADD PUSH2 0x2C02 JUMP JUMPDEST SWAP2 POP POP SWAP3 SWAP2 POP POP JUMP JUMPDEST PUSH32 0x4E487B7100000000000000000000000000000000000000000000000000000000 PUSH1 0x0 MSTORE PUSH1 0x22 PUSH1 0x4 MSTORE PUSH1 0x24 PUSH1 0x0 REVERT JUMPDEST PUSH1 0x0 PUSH1 0x2 DUP3 DIV SWAP1 POP PUSH1 0x1 DUP3 AND DUP1 PUSH2 0x2C8B JUMPI PUSH1 0x7F DUP3 AND SWAP2 POP JUMPDEST PUSH1 0x20 DUP3 LT DUP2 SUB PUSH2 0x2C9E JUMPI PUSH2 0x2C9D PUSH2 0x2C44 JUMP JUMPDEST JUMPDEST POP SWAP2 SWAP1 POP JUMP JUMPDEST PUSH32 0x546869732070726F6475637420646F6573206E6F742065786973742100000000 PUSH1 0x0 DUP3 ADD MSTORE POP JUMP JUMPDEST PUSH1 0x0 PUSH2 0x2CDA PUSH1 0x1C DUP4 PUSH2 0x2944 JUMP JUMPDEST SWAP2 POP PUSH2 0x2CE5 DUP3 PUSH2 0x2CA4 JUMP JUMPDEST PUSH1 0x20 DUP3 ADD SWAP1 POP SWAP2 SWAP1 POP JUMP JUMPDEST PUSH1 0x0 PUSH1 0x20 DUP3 ADD SWAP1 POP DUP2 DUP2 SUB PUSH1 0x0 DUP4 ADD MSTORE PUSH2 0x2D09 DUP2 PUSH2 0x2CCD JUMP JUMPDEST SWAP1 POP SWAP2 SWAP1 POP JUMP JUMPDEST PUSH32 0x4E487B7100000000000000000000000000000000000000000000000000000000 PUSH1 0x0 MSTORE PUSH1 0x32 PUSH1 0x4 MSTORE PUSH1 0x24 PUSH1 0x0 REVERT JUMPDEST PUSH32 0x5175616E746974792063616E2774206265203021000000000000000000000000 PUSH1 0x0 DUP3 ADD MSTORE POP JUMP JUMPDEST PUSH1 0x0 PUSH2 0x2D75 PUSH1 0x14 DUP4 PUSH2 0x2944 JUMP JUMPDEST SWAP2 POP PUSH2 0x2D80 DUP3 PUSH2 0x2D3F JUMP JUMPDEST PUSH1 0x20 DUP3 ADD SWAP1 POP SWAP2 SWAP1 POP JUMP JUMPDEST PUSH1 0x0 PUSH1 0x20 DUP3 ADD SWAP1 POP DUP2 DUP2 SUB PUSH1 0x0 DUP4 ADD MSTORE PUSH2 0x2DA4 DUP2 PUSH2 0x2D68 JUMP JUMPDEST SWAP1 POP SWAP2 SWAP1 POP JUMP JUMPDEST PUSH32 0x596F75206861766520746F20656E7465722061206E616D652100000000000000 PUSH1 0x0 DUP3 ADD MSTORE POP JUMP JUMPDEST PUSH1 0x0 PUSH2 0x2DE1 PUSH1 0x19 DUP4 PUSH2 0x2944 JUMP JUMPDEST SWAP2 POP PUSH2 0x2DEC DUP3 PUSH2 0x2DAB JUMP JUMPDEST PUSH1 0x20 DUP3 ADD SWAP1 POP SWAP2 SWAP1 POP JUMP JUMPDEST PUSH1 0x0 PUSH1 0x20 DUP3 ADD SWAP1 POP DUP2 DUP2 SUB PUSH1 0x0 DUP4 ADD MSTORE PUSH2 0x2E10 DUP2 PUSH2 0x2DD4 JUMP JUMPDEST SWAP1 POP SWAP2 SWAP1 POP JUMP JUMPDEST PUSH1 0x0 DUP2 SWAP1 POP SWAP3 SWAP2 POP POP JUMP JUMPDEST PUSH1 0x0 PUSH2 0x2E2D DUP3 PUSH2 0x24D8 JUMP JUMPDEST PUSH2 0x2E37 DUP2 DUP6 PUSH2 0x2E17 JUMP JUMPDEST SWAP4 POP PUSH2 0x2E47 DUP2 DUP6 PUSH1 0x20 DUP7 ADD PUSH2 0x24F4 JUMP JUMPDEST DUP1 DUP5 ADD SWAP2 POP POP SWAP3 SWAP2 POP POP JUMP JUMPDEST PUSH1 0x0 PUSH2 0x2E5F DUP3 DUP5 PUSH2 0x2E22 JUMP JUMPDEST SWAP2 POP DUP2 SWAP1 POP SWAP3 SWAP2 POP POP JUMP JUMPDEST PUSH2 0x2E73 DUP2 PUSH2 0x268E JUMP JUMPDEST DUP3 MSTORE POP POP JUMP JUMPDEST PUSH1 0x0 DUP2 SWAP1 POP DUP2 PUSH1 0x0 MSTORE PUSH1 0x20 PUSH1 0x0 KECCAK256 SWAP1 POP SWAP2 SWAP1 POP JUMP JUMPDEST PUSH1 0x0 DUP2 SLOAD PUSH2 0x2E9B DUP2 PUSH2 0x2C73 JUMP JUMPDEST PUSH2 0x2EA5 DUP2 DUP7 PUSH2 0x2944 JUMP JUMPDEST SWAP5 POP PUSH1 0x1 DUP3 AND PUSH1 0x0 DUP2 EQ PUSH2 0x2EC0 JUMPI PUSH1 0x1 DUP2 EQ PUSH2 0x2ED6 JUMPI PUSH2 0x2F09 JUMP JUMPDEST PUSH1 0xFF NOT DUP4 AND DUP7 MSTORE DUP2 ISZERO ISZERO PUSH1 0x20 MUL DUP7 ADD SWAP4 POP PUSH2 0x2F09 JUMP JUMPDEST PUSH2 0x2EDF DUP6 PUSH2 0x2E79 JUMP JUMPDEST PUSH1 0x0 JUMPDEST DUP4 DUP2 LT ISZERO PUSH2 0x2F01 JUMPI DUP2 SLOAD DUP2 DUP10 ADD MSTORE PUSH1 0x1 DUP3 ADD SWAP2 POP PUSH1 0x20 DUP2 ADD SWAP1 POP PUSH2 0x2EE2 JUMP JUMPDEST DUP1 DUP9 ADD SWAP6 POP POP POP JUMPDEST POP POP POP SWAP3 SWAP2 POP POP JUMP JUMPDEST PUSH1 0x0 DUP2 SWAP1 POP SWAP2 SWAP1 POP JUMP JUMPDEST PUSH1 0x0 PUSH2 0x2F37 PUSH2 0x2F32 PUSH2 0x2F2D DUP5 PUSH2 0x2568 JUMP JUMPDEST PUSH2 0x2F12 JUMP JUMPDEST PUSH2 0x268E JUMP JUMPDEST SWAP1 POP SWAP2 SWAP1 POP JUMP JUMPDEST PUSH2 0x2F47 DUP2 PUSH2 0x2F1C JUMP JUMPDEST DUP3 MSTORE POP POP JUMP JUMPDEST PUSH1 0x0 PUSH1 0x60 DUP3 ADD SWAP1 POP PUSH2 0x2F62 PUSH1 0x0 DUP4 ADD DUP7 PUSH2 0x2E6A JUMP JUMPDEST DUP2 DUP2 SUB PUSH1 0x20 DUP4 ADD MSTORE PUSH2 0x2F74 DUP2 DUP6 PUSH2 0x2E8E JUMP JUMPDEST SWAP1 POP PUSH2 0x2F83 PUSH1 0x40 DUP4 ADD DUP5 PUSH2 0x2F3E JUMP JUMPDEST SWAP5 SWAP4 POP POP POP POP JUMP JUMPDEST PUSH1 0x0 PUSH1 0x60 DUP3 ADD SWAP1 POP PUSH2 0x2FA0 PUSH1 0x0 DUP4 ADD DUP7 PUSH2 0x2E6A JUMP JUMPDEST DUP2 DUP2 SUB PUSH1 0x20 DUP4 ADD MSTORE PUSH2 0x2FB2 DUP2 DUP6 PUSH2 0x2955 JUMP JUMPDEST SWAP1 POP PUSH2 0x2FC1 PUSH1 0x40 DUP4 ADD DUP5 PUSH2 0x2F3E JUMP JUMPDEST SWAP5 SWAP4 POP POP POP POP JUMP JUMPDEST PUSH1 0x0 PUSH1 0x20 DUP3 ADD SWAP1 POP PUSH2 0x2FDE PUSH1 0x0 DUP4 ADD DUP5 PUSH2 0x2E6A JUMP JUMPDEST SWAP3 SWAP2 POP POP JUMP JUMPDEST PUSH32 0x596F752063616E6E6F7420627579207468652073616D652070726F6475637420 PUSH1 0x0 DUP3 ADD MSTORE PUSH32 0x6D6F7265207468616E206F6E6365210000000000000000000000000000000000 PUSH1 0x20 DUP3 ADD MSTORE POP JUMP JUMPDEST PUSH1 0x0 PUSH2 0x3040 PUSH1 0x2F DUP4 PUSH2 0x2944 JUMP JUMPDEST SWAP2 POP PUSH2 0x304B DUP3 PUSH2 0x2FE4 JUMP JUMPDEST PUSH1 0x40 DUP3 ADD SWAP1 POP SWAP2 SWAP1 POP JUMP JUMPDEST PUSH1 0x0 PUSH1 0x20 DUP3 ADD SWAP1 POP DUP2 DUP2 SUB PUSH1 0x0 DUP4 ADD MSTORE PUSH2 0x306F DUP2 PUSH2 0x3033 JUMP JUMPDEST SWAP1 POP SWAP2 SWAP1 POP JUMP JUMPDEST PUSH32 0x4E487B7100000000000000000000000000000000000000000000000000000000 PUSH1 0x0 MSTORE PUSH1 0x11 PUSH1 0x4 MSTORE PUSH1 0x24 PUSH1 0x0 REVERT JUMPDEST PUSH1 0x0 PUSH2 0x30B0 DUP3 PUSH2 0x2568 JUMP JUMPDEST SWAP2 POP PUSH1 0x0 DUP3 SUB PUSH2 0x30C3 JUMPI PUSH2 0x30C2 PUSH2 0x3076 JUMP JUMPDEST JUMPDEST PUSH1 0x1 DUP3 SUB SWAP1 POP SWAP2 SWAP1 POP JUMP JUMPDEST PUSH1 0x0 PUSH1 0x40 DUP3 ADD SWAP1 POP PUSH2 0x30E3 PUSH1 0x0 DUP4 ADD DUP6 PUSH2 0x2E6A JUMP JUMPDEST PUSH2 0x30F0 PUSH1 0x20 DUP4 ADD DUP5 PUSH2 0x29FF JUMP JUMPDEST SWAP4 SWAP3 POP POP POP JUMP JUMPDEST PUSH32 0x4F776E61626C653A206E6577206F776E657220697320746865207A65726F2061 PUSH1 0x0 DUP3 ADD MSTORE PUSH32 0x6464726573730000000000000000000000000000000000000000000000000000 PUSH1 0x20 DUP3 ADD MSTORE POP JUMP JUMPDEST PUSH1 0x0 PUSH2 0x3153 PUSH1 0x26 DUP4 PUSH2 0x2944 JUMP JUMPDEST SWAP2 POP PUSH2 0x315E DUP3 PUSH2 0x30F7 JUMP JUMPDEST PUSH1 0x40 DUP3 ADD SWAP1 POP SWAP2 SWAP1 POP JUMP JUMPDEST PUSH1 0x0 PUSH1 0x20 DUP3 ADD SWAP1 POP DUP2 DUP2 SUB PUSH1 0x0 DUP4 ADD MSTORE PUSH2 0x3182 DUP2 PUSH2 0x3146 JUMP JUMPDEST SWAP1 POP SWAP2 SWAP1 POP JUMP JUMPDEST PUSH32 0x4F776E61626C653A2063616C6C6572206973206E6F7420746865206F776E6572 PUSH1 0x0 DUP3 ADD MSTORE POP JUMP JUMPDEST PUSH1 0x0 PUSH2 0x31BF PUSH1 0x20 DUP4 PUSH2 0x2944 JUMP JUMPDEST SWAP2 POP PUSH2 0x31CA DUP3 PUSH2 0x3189 JUMP JUMPDEST PUSH1 0x20 DUP3 ADD SWAP1 POP SWAP2 SWAP1 POP JUMP JUMPDEST PUSH1 0x0 PUSH1 0x20 DUP3 ADD SWAP1 POP DUP2 DUP2 SUB PUSH1 0x0 DUP4 ADD MSTORE PUSH2 0x31EE DUP2 PUSH2 0x31B2 JUMP JUMPDEST SWAP1 POP SWAP2 SWAP1 POP JUMP JUMPDEST PUSH1 0x0 PUSH1 0x20 PUSH1 0x1F DUP4 ADD DIV SWAP1 POP SWAP2 SWAP1 POP JUMP JUMPDEST PUSH1 0x0 DUP3 DUP3 SHL SWAP1 POP SWAP3 SWAP2 POP POP JUMP JUMPDEST PUSH1 0x0 PUSH1 0x8 DUP4 MUL PUSH2 0x3242 PUSH32 0xFFFFFFFFFFFFFFFFFFFFFFFFFFFFFFFFFFFFFFFFFFFFFFFFFFFFFFFFFFFFFFFF DUP3 PUSH2 0x3205 JUMP JUMPDEST PUSH2 0x324C DUP7 DUP4 PUSH2 0x3205 JUMP JUMPDEST SWAP6 POP DUP1 NOT DUP5 AND SWAP4 POP DUP1 DUP7 AND DUP5 OR SWAP3 POP POP POP SWAP4 SWAP3 POP POP POP JUMP JUMPDEST PUSH1 0x0 PUSH2 0x327F PUSH2 0x327A PUSH2 0x3275 DUP5 PUSH2 0x268E JUMP JUMPDEST PUSH2 0x2F12 JUMP JUMPDEST PUSH2 0x268E JUMP JUMPDEST SWAP1 POP SWAP2 SWAP1 POP JUMP JUMPDEST PUSH1 0x0 DUP2 SWAP1 POP SWAP2 SWAP1 POP JUMP JUMPDEST PUSH2 0x3299 DUP4 PUSH2 0x3264 JUMP JUMPDEST PUSH2 0x32AD PUSH2 0x32A5 DUP3 PUSH2 0x3286 JUMP JUMPDEST DUP5 DUP5 SLOAD PUSH2 0x3212 JUMP JUMPDEST DUP3 SSTORE POP POP POP POP JUMP JUMPDEST PUSH1 0x0 SWAP1 JUMP JUMPDEST PUSH2 0x32C2 PUSH2 0x32B5 JUMP JUMPDEST PUSH2 0x32CD DUP2 DUP5 DUP5 PUSH2 0x3290 JUMP JUMPDEST POP POP POP JUMP JUMPDEST JUMPDEST DUP2 DUP2 LT ISZERO PUSH2 0x32F1 JUMPI PUSH2 0x32E6 PUSH1 0x0 DUP3 PUSH2 0x32BA JUMP JUMPDEST PUSH1 0x1 DUP2 ADD SWAP1 POP PUSH2 0x32D3 JUMP JUMPDEST POP POP JUMP JUMPDEST PUSH1 0x1F DUP3 GT ISZERO PUSH2 0x3336 JUMPI PUSH2 0x3307 DUP2 PUSH2 0x2E79 JUMP JUMPDEST PUSH2 0x3310 DUP5 PUSH2 0x31F5 JUMP JUMPDEST DUP2 ADD PUSH1 0x20 DUP6 LT ISZERO PUSH2 0x331F JUMPI DUP2 SWAP1 POP JUMPDEST PUSH2 0x3333 PUSH2 0x332B DUP6 PUSH2 0x31F5 JUMP JUMPDEST DUP4 ADD DUP3 PUSH2 0x32D2 JUMP JUMPDEST POP POP JUMPDEST POP POP POP JUMP JUMPDEST PUSH1 0x0 DUP3 DUP3 SHR SWAP1 POP SWAP3 SWAP2 POP POP JUMP JUMPDEST PUSH1 0x0 PUSH2 0x3359 PUSH1 0x0 NOT DUP5 PUSH1 0x8 MUL PUSH2 0x333B JUMP JUMPDEST NOT DUP1 DUP4 AND SWAP2 POP POP SWAP3 SWAP2 POP POP JUMP JUMPDEST PUSH1 0x0 PUSH2 0x3372 DUP4 DUP4 PUSH2 0x3348 JUMP JUMPDEST SWAP2 POP DUP3 PUSH1 0x2 MUL DUP3 OR SWAP1 POP SWAP3 SWAP2 POP POP JUMP JUMPDEST PUSH2 0x338B DUP3 PUSH2 0x24D8 JUMP JUMPDEST PUSH8 0xFFFFFFFFFFFFFFFF DUP2 GT ISZERO PUSH2 0x33A4 JUMPI PUSH2 0x33A3 PUSH2 0x275A JUMP JUMPDEST JUMPDEST PUSH2 0x33AE DUP3 SLOAD PUSH2 0x2C73 JUMP JUMPDEST PUSH2 0x33B9 DUP3 DUP3 DUP6 PUSH2 0x32F5 JUMP JUMPDEST PUSH1 0x0 PUSH1 0x20 SWAP1 POP PUSH1 0x1F DUP4 GT PUSH1 0x1 DUP2 EQ PUSH2 0x33EC JUMPI PUSH1 0x0 DUP5 ISZERO PUSH2 0x33DA JUMPI DUP3 DUP8 ADD MLOAD SWAP1 POP JUMPDEST PUSH2 0x33E4 DUP6 DUP3 PUSH2 0x3366 JUMP JUMPDEST DUP7 SSTORE POP PUSH2 0x344C JUMP JUMPDEST PUSH1 0x1F NOT DUP5 AND PUSH2 0x33FA DUP7 PUSH2 0x2E79 JUMP JUMPDEST PUSH1 0x0 JUMPDEST DUP3 DUP2 LT ISZERO PUSH2 0x3422 JUMPI DUP5 DUP10 ADD MLOAD DUP3 SSTORE PUSH1 0x1 DUP3 ADD SWAP2 POP PUSH1 0x20 DUP6 ADD SWAP5 POP PUSH1 0x20 DUP2 ADD SWAP1 POP PUSH2 0x33FD JUMP JUMPDEST DUP7 DUP4 LT ISZERO PUSH2 0x343F JUMPI DUP5 DUP10 ADD MLOAD PUSH2 0x343B PUSH1 0x1F DUP10 AND DUP3 PUSH2 0x3348 JUMP JUMPDEST DUP4 SSTORE POP JUMPDEST PUSH1 0x1 PUSH1 0x2 DUP9 MUL ADD DUP9 SSTORE POP POP POP JUMPDEST POP POP POP POP POP POP JUMP JUMPDEST PUSH32 0x536F7272792C20796F7572207265717565737420666F7220726566756E642068 PUSH1 0x0 DUP3 ADD MSTORE PUSH32 0x6173206265656E2064656E6965642E0000000000000000000000000000000000 PUSH1 0x20 DUP3 ADD MSTORE POP JUMP JUMPDEST PUSH1 0x0 PUSH2 0x34B0 PUSH1 0x2F DUP4 PUSH2 0x2944 JUMP JUMPDEST SWAP2 POP PUSH2 0x34BB DUP3 PUSH2 0x3454 JUMP JUMPDEST PUSH1 0x40 DUP3 ADD SWAP1 POP SWAP2 SWAP1 POP JUMP JUMPDEST PUSH1 0x0 PUSH1 0x20 DUP3 ADD SWAP1 POP DUP2 DUP2 SUB PUSH1 0x0 DUP4 ADD MSTORE PUSH2 0x34DF DUP2 PUSH2 0x34A3 JUMP JUMPDEST SWAP1 POP SWAP2 SWAP1 POP JUMP JUMPDEST PUSH32 0x596F7527766520616C72656164792072657475726E656420796F75722070726F PUSH1 0x0 DUP3 ADD MSTORE PUSH32 0x64756374206F72206469646E2774206576656E20626F756768742069742E0000 PUSH1 0x20 DUP3 ADD MSTORE POP JUMP JUMPDEST PUSH1 0x0 PUSH2 0x3542 PUSH1 0x3E DUP4 PUSH2 0x2944 JUMP JUMPDEST SWAP2 POP PUSH2 0x354D DUP3 PUSH2 0x34E6 JUMP JUMPDEST PUSH1 0x40 DUP3 ADD SWAP1 POP SWAP2 SWAP1 POP JUMP JUMPDEST PUSH1 0x0 PUSH1 0x20 DUP3 ADD SWAP1 POP DUP2 DUP2 SUB PUSH1 0x0 DUP4 ADD MSTORE PUSH2 0x3571 DUP2 PUSH2 0x3535 JUMP JUMPDEST SWAP1 POP SWAP2 SWAP1 POP JUMP JUMPDEST PUSH1 0x0 PUSH2 0x3583 DUP3 PUSH2 0x268E JUMP JUMPDEST SWAP2 POP PUSH2 0x358E DUP4 PUSH2 0x268E JUMP JUMPDEST SWAP3 POP DUP3 DUP3 ADD SWAP1 POP DUP1 DUP3 GT ISZERO PUSH2 0x35A6 JUMPI PUSH2 0x35A5 PUSH2 0x3076 JUMP JUMPDEST JUMPDEST SWAP3 SWAP2 POP POP JUMP INVALID LOG2 PUSH5 0x6970667358 0x22 SLT KECCAK256 PUSH11 0x7E454BD055D31D04573D14 TIMESTAMP 0xCF RETURNDATACOPY 0xDE 0xC3 PUSH27 0xEAA8E0CAB12CCC76EE0975C8116D64736F6C634300081B00330000 "},"methodIdentifiers":{"addProduct(string,uint16)":"43b72648","buyProduct(uint256)":"8642269e","getAllProducts()":"02ee3a52","getProductBuyersById(uint256)":"ea258772","getProductById(uint256)":"3f70c2b4","getProductByName(string)":"d4290f83","getRefundPolicyNumber()":"6a1d1959","owner()":"8da5cb5b","products(uint256)":"7acc0b20","refundProduct(uint256)":"7274d680","renounceOwnership()":"715018a6","setRefundPolicyNumber(uint8)":"fb8fc184","transferOwnership(address)":"f2fde38b","updateProductQuantity(uint256,uint16)":"c750fc54"}}}}}