{
  "_format": "hh-sol-artifact-1",
  "contractName": "Store",
  "sourceName": "contracts/Store.sol",
  "abi": [
    {
      "anonymous": false,
      "inputs": [
        {
          "indexed": true,
          "internalType": "address",
          "name": "previousOwner",
          "type": "address"
        },
        {
          "indexed": true,
          "internalType": "address",
          "name": "newOwner",
          "type": "address"
        }
      ],
      "name": "OwnershipTransferred",
      "type": "event"
    },
    {
      "anonymous": false,
      "inputs": [
        {
          "indexed": false,
          "internalType": "uint256",
          "name": "id",
          "type": "uint256"
        },
        {
          "indexed": false,
          "internalType": "string",
          "name": "name",
          "type": "string"
        },
        {
          "indexed": false,
          "internalType": "uint256",
          "name": "quantity",
          "type": "uint256"
        }
      ],
      "name": "ProductAdded",
      "type": "event"
    },
    {
      "anonymous": false,
      "inputs": [
        {
          "indexed": false,
          "internalType": "uint256",
          "name": "id",
          "type": "uint256"
        },
        {
          "indexed": false,
          "internalType": "address",
          "name": "buyer",
          "type": "address"
        }
      ],
      "name": "ProductBought",
      "type": "event"
    },
    {
      "anonymous": false,
      "inputs": [
        {
          "indexed": false,
          "internalType": "uint256",
          "name": "id",
          "type": "uint256"
        }
      ],
      "name": "ProductRefund",
      "type": "event"
    },
    {
      "anonymous": false,
      "inputs": [
        {
          "indexed": false,
          "internalType": "uint256",
          "name": "id",
          "type": "uint256"
        },
        {
          "indexed": false,
          "internalType": "string",
          "name": "name",
          "type": "string"
        },
        {
          "indexed": false,
          "internalType": "uint256",
          "name": "quantity",
          "type": "uint256"
        }
      ],
      "name": "ProductUpdated",
      "type": "event"
    },
    {
      "inputs": [
        {
          "internalType": "string",
          "name": "name",
          "type": "string"
        },
        {
          "internalType": "uint16",
          "name": "quantity",
          "type": "uint16"
        }
      ],
      "name": "addProduct",
      "outputs": [],
      "stateMutability": "nonpayable",
      "type": "function"
    },
    {
      "inputs": [
        {
          "internalType": "uint256",
          "name": "id",
          "type": "uint256"
        }
      ],
      "name": "buyProduct",
      "outputs": [],
      "stateMutability": "nonpayable",
      "type": "function"
    },
    {
      "inputs": [],
      "name": "getAllProducts",
      "outputs": [
        {
          "components": [
            {
              "internalType": "string",
              "name": "name",
              "type": "string"
            },
            {
              "internalType": "uint16",
              "name": "quantity",
              "type": "uint16"
            }
          ],
          "internalType": "struct StoreBase.Product[]",
          "name": "",
          "type": "tuple[]"
        }
      ],
      "stateMutability": "view",
      "type": "function"
    },
    {
      "inputs": [
        {
          "internalType": "uint256",
          "name": "id",
          "type": "uint256"
        }
      ],
      "name": "getProductBuyersById",
      "outputs": [
        {
          "internalType": "address[]",
          "name": "",
          "type": "address[]"
        }
      ],
      "stateMutability": "view",
      "type": "function"
    },
    {
      "inputs": [
        {
          "internalType": "uint256",
          "name": "id",
          "type": "uint256"
        }
      ],
      "name": "getProductById",
      "outputs": [
        {
          "components": [
            {
              "internalType": "string",
              "name": "name",
              "type": "string"
            },
            {
              "internalType": "uint16",
              "name": "quantity",
              "type": "uint16"
            }
          ],
          "internalType": "struct StoreBase.Product",
          "name": "",
          "type": "tuple"
        }
      ],
      "stateMutability": "view",
      "type": "function"
    },
    {
      "inputs": [
        {
          "internalType": "string",
          "name": "name",
          "type": "string"
        }
      ],
      "name": "getProductByName",
      "outputs": [
        {
          "components": [
            {
              "internalType": "string",
              "name": "name",
              "type": "string"
            },
            {
              "internalType": "uint16",
              "name": "quantity",
              "type": "uint16"
            }
          ],
          "internalType": "struct StoreBase.Product",
          "name": "",
          "type": "tuple"
        }
      ],
      "stateMutability": "view",
      "type": "function"
    },
    {
      "inputs": [],
      "name": "getRefundPolicyNumber",
      "outputs": [
        {
          "internalType": "uint8",
          "name": "",
          "type": "uint8"
        }
      ],
      "stateMutability": "view",
      "type": "function"
    },
    {
      "inputs": [],
      "name": "owner",
      "outputs": [
        {
          "internalType": "address",
          "name": "",
          "type": "address"
        }
      ],
      "stateMutability": "view",
      "type": "function"
    },
    {
      "inputs": [
        {
          "internalType": "uint256",
          "name": "",
          "type": "uint256"
        }
      ],
      "name": "products",
      "outputs": [
        {
          "internalType": "string",
          "name": "name",
          "type": "string"
        },
        {
          "internalType": "uint16",
          "name": "quantity",
          "type": "uint16"
        }
      ],
      "stateMutability": "view",
      "type": "function"
    },
    {
      "inputs": [
        {
          "internalType": "uint256",
          "name": "id",
          "type": "uint256"
        }
      ],
      "name": "refundProduct",
      "outputs": [],
      "stateMutability": "nonpayable",
      "type": "function"
    },
    {
      "inputs": [],
      "name": "renounceOwnership",
      "outputs": [],
      "stateMutability": "nonpayable",
      "type": "function"
    },
    {
      "inputs": [
        {
          "internalType": "uint8",
          "name": "blockNumber",
          "type": "uint8"
        }
      ],
      "name": "setRefundPolicyNumber",
      "outputs": [],
      "stateMutability": "nonpayable",
      "type": "function"
    },
    {
      "inputs": [
        {
          "internalType": "address",
          "name": "newOwner",
          "type": "address"
        }
      ],
      "name": "transferOwnership",
      "outputs": [],
      "stateMutability": "nonpayable",
      "type": "function"
    },
    {
      "inputs": [
        {
          "internalType": "uint256",
          "name": "id",
          "type": "uint256"
        },
        {
          "internalType": "uint16",
          "name": "quantity",
          "type": "uint16"
        }
      ],
      "name": "updateProductQuantity",
      "outputs": [],
      "stateMutability": "nonpayable",
      "type": "function"
    }
  ],
  "bytecode": "0x60806040526064600060146101000a81548160ff021916908360ff16021790555034801561002c57600080fd5b5061004961003e61004e60201b60201c565b61005660201b60201c565b61011a565b600033905090565b60008060009054906101000a900473ffffffffffffffffffffffffffffffffffffffff169050816000806101000a81548173ffffffffffffffffffffffffffffffffffffffff021916908373ffffffffffffffffffffffffffffffffffffffff1602179055508173ffffffffffffffffffffffffffffffffffffffff168173ffffffffffffffffffffffffffffffffffffffff167f8be0079c531659141344cd1fd0a4f28419497f9722a3daafe3b4186f6b6457e060405160405180910390a35050565b6135e2806101296000396000f3fe608060405234801561001057600080fd5b50600436106100ea5760003560e01c80638642269e1161008c578063d4290f8311610066578063d4290f8314610224578063ea25877214610254578063f2fde38b14610284578063fb8fc184146102a0576100ea565b80638642269e146101ce5780638da5cb5b146101ea578063c750fc5414610208576100ea565b80636a1d1959116100c85780636a1d195914610159578063715018a6146101775780637274d680146101815780637acc0b201461019d576100ea565b806302ee3a52146100ef5780633f70c2b41461010d57806343b726481461013d575b600080fd5b6100f76102bc565b6040516101049190612658565b60405180910390f35b610127600480360381019061012291906126c4565b610409565b604051610134919061272e565b60405180910390f35b610157600480360381019061015291906128b1565b61064c565b005b610161610b14565b60405161016e9190612929565b60405180910390f35b61017f610b67565b005b61019b600480360381019061019691906126c4565b610b7b565b005b6101b760048036038101906101b291906126c4565b610d8b565b6040516101c592919061299d565b60405180910390f35b6101e860048036038101906101e391906126c4565b610e55565b005b6101f261129b565b6040516101ff9190612a0e565b60405180910390f35b610222600480360381019061021d9190612a29565b6112c4565b005b61023e60048036038101906102399190612a69565b6114f0565b60405161024b919061272e565b60405180910390f35b61026e600480360381019061026991906126c4565b611864565b60405161027b9190612b70565b60405180910390f35b61029e60048036038101906102999190612bbe565b611a2c565b005b6102ba60048036038101906102b59190612c17565b611aaf565b005b60606102d267d64b42075b9eff8a60c01b611b25565b6102e6672186486374494d2160c01b611b25565b6102fa671426fca281c211e060c01b611b25565b6001805480602002602001604051908101604052809291908181526020016000905b82821015610400578382906000526020600020906002020160405180604001604052908160008201805461034f90612c73565b80601f016020809104026020016040519081016040528092919081815260200182805461037b90612c73565b80156103c85780601f1061039d576101008083540402835291602001916103c8565b820191906000526020600020905b8154815290600101906020018083116103ab57829003601f168201915b505050505081526020016001820160009054906101000a900461ffff1661ffff1661ffff16815250508152602001906001019061031c565b50505050905090565b61041161248e565b610425675a53dba6dda6985d60c01b611b25565b816001805490506104406714e6c00b2f08abdd60c01b611b28565b610454675d2c3fa9615edb5560c01b611b28565b61046867ed9087de2553a92a60c01b611b28565b61047c67caf78f28a40881c360c01b611b28565b8082106104be576040517f08c379a00000000000000000000000000000000000000000000000000000000081526004016104b590612cf0565b60405180910390fd5b6104d2677785617cd168533760c01b611b28565b6104e667352c67d7623db3d860c01b611b28565b6104fa67f2e33dd365f30dd360c01b611b25565b61050e67caef3087d4eb2b9360c01b611b25565b6105226740a87c08fd43a6ff60c01b611b25565b610536676aeb7d660884affb60c01b611b25565b60006001858154811061054c5761054b612d10565b5b9060005260206000209060020201905061057067de407feed382fdee60c01b611b25565b61058467ea39b7cc2fcbced160c01b611b25565b806040518060400160405290816000820180546105a090612c73565b80601f01602080910402602001604051908101604052809291908181526020018280546105cc90612c73565b80156106195780601f106105ee57610100808354040283529160200191610619565b820191906000526020600020905b8154815290600101906020018083116105fc57829003601f168201915b505050505081526020016001820160009054906101000a900461ffff1661ffff1661ffff16815250509350505050919050565b61066067fff0339d38784e7560c01b611b25565b610668611b2b565b61067c67a1e6384e1ea99d1d60c01b611b25565b61069067ae2cb3d4acf0197a60c01b611b25565b806106a567efd080e171e3234260c01b611b28565b6106b967f1c1e2db156ba87260c01b611b28565b6106cd67300b7ab469b0658760c01b611b28565b6106e1679a28d781b5a30cbb60c01b611b28565b60008161ffff1611610728576040517f08c379a000000000000000000000000000000000000000000000000000000000815260040161071f90612d8b565b60405180910390fd5b61073c67353b406a2faac4e660c01b611b28565b6107506770ba0bc8b3bee76960c01b611b28565b610764673ad780b812992a0260c01b611b25565b61077766b6a882ea06808c60c01b611b25565b8261078c67bb576304a5d5f93660c01b611ba9565b6107a06723070ee2e6f0bed060c01b611ba9565b6107b467a58b4032aa92fa6360c01b611ba9565b6107c8678e5469ca3d8c65f660c01b611ba9565b600081510361080c576040517f08c379a000000000000000000000000000000000000000000000000000000000815260040161080390612df7565b60405180910390fd5b6108206731a445f74fe50f8460c01b611ba9565b61083467f296398e131e18fe60c01b611ba9565b61084867bbb2c87e1da27ce660c01b611b25565b61085c67c347607aa986359460c01b611b25565b61087067e2c84d365376f74d60c01b611b25565b61088467bb123fad451122b560c01b611b25565b6000806003866040516108979190612e53565b908152602001604051809103902060000180546108b390612c73565b90501190506108cc6786a52deb3e7371af60c01b611b25565b6108e06709493e474fae37fd60c01b611b25565b6000600260006108ef88611bac565b81526020019081526020016000205490506109146784cf7e96eba67d2d60c01b611b25565b610928672d949a562954e11760c01b611b25565b8115610a405761094267441ebcd785a22d4f60c01b611b25565b6109566709b587fb4369def360c01b611b25565b61096a678b8badd2184116ca60c01b611b25565b6000600182815481106109805761097f612d10565b5b906000526020600020906002020190506109a467595c27765481b86260c01b611b25565b6109b8671392d012ef27ff3460c01b611b25565b6109c28287611c18565b6109d667f8534a32328882ca60c01b611b25565b6109ea678dfa7dd9065d6ef860c01b611b25565b7ff9b1d9170fbe32752353e00d62e5276b143166c75aa974030dddfac2895601fe82826000018360010160009054906101000a900461ffff16604051610a3293929190612f4d565b60405180910390a150610b0c565b610a5467612addc46d12660e60c01b611b25565b610a6867cb31f9be809ef50260c01b611b25565b6001805490509050610a84676acd3b6a0764e99260c01b611b25565b610a98679fea8512c6b7c62660c01b611b25565b610aa86001805490508787611c84565b610abc677be9c1ff520d798360c01b611b25565b610ad06798f464707cb7b44e60c01b611b25565b7fcca07c742c5274e8b72111ba69566aa4442450bfc50bd897ea38d0170d1accfc818787604051610b0393929190612f8b565b60405180910390a15b505050505050565b6000610b2a67f784455ed58b928f60c01b611b25565b610b3e679449da11c367cbed60c01b611b25565b610b52674de1a2ab66ee881760c01b611b25565b600060149054906101000a900460ff16905090565b610b6f611b2b565b610b796000611e43565b565b610b8f6775da2d9241638a7d60c01b611b25565b80600180549050610baa6714e6c00b2f08abdd60c01b611b28565b610bbe675d2c3fa9615edb5560c01b611b28565b610bd267ed9087de2553a92a60c01b611b28565b610be667caf78f28a40881c360c01b611b28565b808210610c28576040517f08c379a0000000000000000000000000000000000000000000000000000000008152600401610c1f90612cf0565b60405180910390fd5b610c3c677785617cd168533760c01b611b28565b610c5067352c67d7623db3d860c01b611b28565b610c6467230ced41e173715860c01b611b25565b610c786740771defa274980e60c01b611b25565b610c8c67a6a021407f11c2be60c01b611b25565b610ca067177dd824063b0ef660c01b611b25565b6000339050610cb9676b04b117549ce4d260c01b611b25565b610ccd6715437ed44196a42e60c01b611b25565b610cd78482611f07565b610ceb671433bc2b7624a22060c01b611b25565b610cff67c074da0943a8eec860c01b611b25565b600060018581548110610d1557610d14612d10565b5b90600052602060002090600202019050610d39673903a68416d6052960c01b611b25565b610d4d6715a23f2ab0a7430760c01b611b25565b7f21b68a0c4ac2beb4bede4a50169cdeeeaff19097e416463da0524864702ffe4485604051610d7c9190612fc9565b60405180910390a15050505050565b60018181548110610d9b57600080fd5b9060005260206000209060020201600091509050806000018054610dbe90612c73565b80601f0160208091040260200160405190810160405280929190818152602001828054610dea90612c73565b8015610e375780601f10610e0c57610100808354040283529160200191610e37565b820191906000526020600020905b815481529060010190602001808311610e1a57829003601f168201915b5050505050908060010160009054906101000a900461ffff16905082565b610e6967d1f181e31082e35560c01b611b25565b60018181548110610e7d57610e7c612d10565b5b906000526020600020906002020160010160009054906101000a900461ffff16610eb167efd080e171e3234260c01b611b28565b610ec567f1c1e2db156ba87260c01b611b28565b610ed967300b7ab469b0658760c01b611b28565b610eed679a28d781b5a30cbb60c01b611b28565b60008161ffff1611610f34576040517f08c379a0000000000000000000000000000000000000000000000000000000008152600401610f2b90612d8b565b60405180910390fd5b610f4867353b406a2faac4e660c01b611b28565b610f5c6770ba0bc8b3bee76960c01b611b28565b610f7067aa7479e2c4dcbb9d60c01b611b25565b610f84678b774ae57525657160c01b611b25565b81600180549050610f9f6714e6c00b2f08abdd60c01b611b28565b610fb3675d2c3fa9615edb5560c01b611b28565b610fc767ed9087de2553a92a60c01b611b28565b610fdb67caf78f28a40881c360c01b611b28565b80821061101d576040517f08c379a000000000000000000000000000000000000000000000000000000000815260040161101490612cf0565b60405180910390fd5b611031677785617cd168533760c01b611b28565b61104567352c67d7623db3d860c01b611b28565b61105967e50b50fb4486273760c01b611b25565b61106d6771dc22cb3996f06360c01b611b25565b61108167fd436837353207ba60c01b611b25565b611094668aa8ec03056bd060c01b611b25565b60003390506110ad67da2e151ac8a7d9db60c01b611b25565b6110c167be21d0e9622acd0860c01b611b25565b6000600186815481106110d7576110d6612d10565b5b906000526020600020906002020190506110fb679b3d1b63e5164e0460c01b611b25565b61110f6795e0d6f2c6d5035e60c01b611b25565b600061111b87846121b0565b905061113167997e943c44821f5260c01b611b25565b6111456709c29de3dcbe012560c01b611b25565b611159676e5277bcaa67001260c01b611b25565b801561119a576040517f08c379a000000000000000000000000000000000000000000000000000000000815260040161119190613056565b60405180910390fd5b6111ae671bc38ff97968542d60c01b611b25565b6111c26713a03ed8b9dd36d460c01b611b25565b6111d66736778f1a8620eadd60c01b611b25565b6111e0878461224a565b6111f46734c340353ecd80d960c01b611b25565b81600101600081819054906101000a900461ffff1680929190611216906130a5565b91906101000a81548161ffff021916908361ffff16021790555050611245674f799b37ad752da060c01b611b25565b611259673c47f16aa8fd645160c01b611b25565b7f60751e87ab3312710ec7d4da85ea804d0813ca2cb843a75cc23c672e1bd3954a878460405161128a9291906130ce565b60405180910390a150505050505050565b60008060009054906101000a900473ffffffffffffffffffffffffffffffffffffffff16905090565b6112d867b53ebe8d2c3abbda60c01b611b25565b6112e0611b2b565b6112f4677fd94987f598195960c01b611b25565b611308677c44919e1fcc41cd60c01b611b25565b816001805490506113236714e6c00b2f08abdd60c01b611b28565b611337675d2c3fa9615edb5560c01b611b28565b61134b67ed9087de2553a92a60c01b611b28565b61135f67caf78f28a40881c360c01b611b28565b8082106113a1576040517f08c379a000000000000000000000000000000000000000000000000000000000815260040161139890612cf0565b60405180910390fd5b6113b5677785617cd168533760c01b611b28565b6113c967352c67d7623db3d860c01b611b28565b6113dd67835f4be3f0e9398960c01b611b25565b6113f167b7058506756cc22160c01b611b25565b611405675e302319ec9fe7da60c01b611b25565b611419677532384c3586529a60c01b611b25565b6114238484611c18565b611437675402f1a04e47ff2160c01b611b25565b61144b671b58bbe9b07079ee60c01b611b25565b60006001858154811061146157611460612d10565b5b90600052602060002090600202019050611485677de3d6e2c945a35860c01b611b25565b611499678a59d55c88c2c23960c01b611b25565b7ff9b1d9170fbe32752353e00d62e5276b143166c75aa974030dddfac2895601fe85826000018360010160009054906101000a900461ffff166040516114e193929190612f4d565b60405180910390a15050505050565b6114f861248e565b61150c67a46b9c42b6cacce960c01b611b25565b8161152167bb576304a5d5f93660c01b611ba9565b6115356723070ee2e6f0bed060c01b611ba9565b61154967a58b4032aa92fa6360c01b611ba9565b61155d678e5469ca3d8c65f660c01b611ba9565b60008151036115a1576040517f08c379a000000000000000000000000000000000000000000000000000000000815260040161159890612df7565b60405180910390fd5b6115b56731a445f74fe50f8460c01b611ba9565b6115c967f296398e131e18fe60c01b611ba9565b6115dd677177d50746ce7c9960c01b611b25565b6115f1671ba473b8bb8159f860c01b611b25565b611605674bdbb0b6a4eca27760c01b611b25565b61161967fc924040c9c2b0c660c01b611b25565b60008060038560405161162c9190612e53565b9081526020016040518091039020600001805461164890612c73565b9050119050611661676a7495112b2d8eb460c01b611b25565b611675676b3ebd6f986a2c8e60c01b611b25565b61168967c0f9bad4b7abb00960c01b611b25565b806116c9576040517f08c379a00000000000000000000000000000000000000000000000000000000081526004016116c090612cf0565b60405180910390fd5b6116dd6722e3c2fb1490ff1560c01b611b25565b6116f16725cb01d28cd1713260c01b611b25565b6117056757e8299dcefac7fd60c01b611b25565b60006002600061171487611bac565b815260200190815260200160002054905061173967c76b592eaecb9bd260c01b611b25565b61174d67b0ebfee88a05987b60c01b611b25565b60006001828154811061176357611762612d10565b5b90600052602060002090600202019050611787679edf6b866199081c60c01b611b25565b61179b675e553c6346bd79fb60c01b611b25565b806040518060400160405290816000820180546117b790612c73565b80601f01602080910402602001604051908101604052809291908181526020018280546117e390612c73565b80156118305780601f1061180557610100808354040283529160200191611830565b820191906000526020600020905b81548152906001019060200180831161181357829003601f168201915b505050505081526020016001820160009054906101000a900461ffff1661ffff1661ffff1681525050945050505050919050565b606061187a676049280b369015e360c01b611b25565b816001805490506118956714e6c00b2f08abdd60c01b611b28565b6118a9675d2c3fa9615edb5560c01b611b28565b6118bd67ed9087de2553a92a60c01b611b28565b6118d167caf78f28a40881c360c01b611b28565b808210611913576040517f08c379a000000000000000000000000000000000000000000000000000000000815260040161190a90612cf0565b60405180910390fd5b611927677785617cd168533760c01b611b28565b61193b67352c67d7623db3d860c01b611b28565b61194f67455fdf92e89c205160c01b611b25565b611963678c116b3c3c1772f560c01b611b25565b61197767c854e109d07ed0aa60c01b611b25565b61198b67979808bf8750f98d60c01b611b25565b60056000858152602001908152602001600020805480602002602001604051908101604052809291908181526020018280548015611a1e57602002820191906000526020600020905b8160009054906101000a900473ffffffffffffffffffffffffffffffffffffffff1673ffffffffffffffffffffffffffffffffffffffff16815260200190600101908083116119d4575b505050505092505050919050565b611a34611b2b565b600073ffffffffffffffffffffffffffffffffffffffff168173ffffffffffffffffffffffffffffffffffffffff1603611aa3576040517f08c379a0000000000000000000000000000000000000000000000000000000008152600401611a9a90613169565b60405180910390fd5b611aac81611e43565b50565b611ac367b635adf16b47c67160c01b611b25565b611acb611b2b565b611adf672bc82e22b836bb6260c01b611b25565b611af3676e4628216ec3d07160c01b611b25565b611b07675d6ebbd126b0fca060c01b611b25565b80600060146101000a81548160ff021916908360ff16021790555050565b50565b50565b611b33612395565b73ffffffffffffffffffffffffffffffffffffffff16611b5161129b565b73ffffffffffffffffffffffffffffffffffffffff1614611ba7576040517f08c379a0000000000000000000000000000000000000000000000000000000008152600401611b9e906131d5565b60405180910390fd5b565b50565b6000611bc2670e52af31fc5f4f2560c01b61239d565b611bd667f5ee7600d7f8808f60c01b61239d565b611bea6728f4fcb0296b8e8e60c01b61239d565b81604051602001611bfb9190612e53565b604051602081830303815290604052805190602001209050919050565b611c2c672631a031b4e0994260c01b61239d565b611c40677a2f4e696596637960c01b61239d565b8060018381548110611c5557611c54612d10565b5b906000526020600020906002020160010160006101000a81548161ffff021916908361ffff1602179055505050565b611c9867232d86873abf54ed60c01b61239d565b611cac67662264f36f52ba6260c01b61239d565b611cc067dec03e386e04885e60c01b61239d565b600060405180604001604052808481526020018361ffff168152509050611cf167f4567011cba1344060c01b61239d565b611d056789238f84c6e7ec5760c01b61239d565b6000611d1084611bac565b9050611d2667fb50f043db075d9b60c01b61239d565b846002600083815260200190815260200160002081905550611d5267e4dc95c9c48a6d8b60c01b61239d565b611d6667949164aa523869cc60c01b61239d565b60018290806001815401808255809150506001900390600052602060002090600202016000909190919091506000820151816000019081611da79190613382565b5060208201518160010160006101000a81548161ffff021916908361ffff1602179055505050611de1676f189a66919c5c2860c01b61239d565b81600385604051611df29190612e53565b90815260200160405180910390206000820151816000019081611e159190613382565b5060208201518160010160006101000a81548161ffff021916908361ffff1602179055509050505050505050565b60008060009054906101000a900473ffffffffffffffffffffffffffffffffffffffff169050816000806101000a81548173ffffffffffffffffffffffffffffffffffffffff021916908373ffffffffffffffffffffffffffffffffffffffff1602179055508173ffffffffffffffffffffffffffffffffffffffff168173ffffffffffffffffffffffffffffffffffffffff167f8be0079c531659141344cd1fd0a4f28419497f9722a3daafe3b4186f6b6457e060405160405180910390a35050565b611f1b67c4cea4fad77d675760c01b61239d565b611f2f6799ed310f5d85dbd860c01b61239d565b611f436784d08929c8c2682260c01b61239d565b600080600460008473ffffffffffffffffffffffffffffffffffffffff1673ffffffffffffffffffffffffffffffffffffffff16815260200190815260200160002060008581526020019081526020016000205414159050611faf6772d274de7b6a902b60c01b61239d565b611fc3675470bba0d6bcc09560c01b61239d565b600061201e600460008573ffffffffffffffffffffffffffffffffffffffff1673ffffffffffffffffffffffffffffffffffffffff1681526020019081526020016000206000868152602001908152602001600020546123a0565b9050612034674bfe07646362007160c01b61239d565b612048673c854c509489da0d60c01b61239d565b61205c67676233095160dd0f60c01b61239d565b8061209c576040517f08c379a0000000000000000000000000000000000000000000000000000000008152600401612093906134c6565b60405180910390fd5b6120b067c884ef697a29c7e460c01b61239d565b6120c4672d3595c7f2798b3160c01b61239d565b6120d867b4f3e49d56c117f860c01b61239d565b6120ec676d16f1e0227580b260c01b61239d565b8161212c576040517f08c379a000000000000000000000000000000000000000000000000000000000815260040161212390613558565b60405180910390fd5b612140675490258119e2442d60c01b61239d565b61215467b83483119a22563f60c01b61239d565b6000600460008573ffffffffffffffffffffffffffffffffffffffff1673ffffffffffffffffffffffffffffffffffffffff16815260200190815260200160002060008681526020019081526020016000208190555050505050565b60006121c6679f3b704a8d02aa8760c01b61239d565b6121da67fbc91c323eb1d7e660c01b61239d565b6121ee67ffbfc60571f676d060c01b61239d565b6000600460008473ffffffffffffffffffffffffffffffffffffffff1673ffffffffffffffffffffffffffffffffffffffff16815260200190815260200160002060008581526020019081526020016000205411905092915050565b61225e6746ae058aec1d558e60c01b61239d565b61227267b7aee5142df18f0b60c01b61239d565b612286674a0066ecc650a1eb60c01b61239d565b600043905061229f67f00b319e011678bb60c01b61239d565b80600460008473ffffffffffffffffffffffffffffffffffffffff1673ffffffffffffffffffffffffffffffffffffffff16815260200190815260200160002060008581526020019081526020016000208190555061230867d6b99e913272f48f60c01b61239d565b61231c6736f9e478136a5a8e60c01b61239d565b60056000848152602001908152602001600020829080600181540180825580915050600190039060005260206000200160009091909190916101000a81548173ffffffffffffffffffffffffffffffffffffffff021916908373ffffffffffffffffffffffffffffffffffffffff160217905550505050565b600033905090565b50565b60006123b66778e0bca069d029f160c01b61239d565b6123ca677ea6ca17949af29e60c01b61239d565b6123de676736c254fe20f12760c01b61239d565b43600060149054906101000a900460ff1660ff16836123fd9190613578565b1115612448576124176765b6468fe6a419fd60c01b61239d565b61242b672498ee232f012b9a60c01b61239d565b61243f6752faef083e55df0260c01b61239d565b60019050612489565b61245c67fc820f9464ff40b060c01b61239d565b612470676bac576348a2cc6560c01b61239d565b61248467bdbcdb5b195b9e8960c01b61239d565b600090505b919050565b604051806040016040528060608152602001600061ffff1681525090565b600081519050919050565b600082825260208201905092915050565b6000819050602082019050919050565b600081519050919050565b600082825260208201905092915050565b60005b838110156125125780820151818401526020810190506124f7565b60008484015250505050565b6000601f19601f8301169050919050565b600061253a826124d8565b61254481856124e3565b93506125548185602086016124f4565b61255d8161251e565b840191505092915050565b600061ffff82169050919050565b61257f81612568565b82525050565b600060408301600083015184820360008601526125a2828261252f565b91505060208301516125b76020860182612576565b508091505092915050565b60006125ce8383612585565b905092915050565b6000602082019050919050565b60006125ee826124ac565b6125f881856124b7565b93508360208202850161260a856124c8565b8060005b85811015612646578484038952815161262785826125c2565b9450612632836125d6565b925060208a0199505060018101905061260e565b50829750879550505050505092915050565b6000602082019050818103600083015261267281846125e3565b905092915050565b6000604051905090565b600080fd5b600080fd5b6000819050919050565b6126a18161268e565b81146126ac57600080fd5b50565b6000813590506126be81612698565b92915050565b6000602082840312156126da576126d9612684565b5b60006126e8848285016126af565b91505092915050565b6000604083016000830151848203600086015261270e828261252f565b91505060208301516127236020860182612576565b508091505092915050565b6000602082019050818103600083015261274881846126f1565b905092915050565b600080fd5b600080fd5b7f4e487b7100000000000000000000000000000000000000000000000000000000600052604160045260246000fd5b6127928261251e565b810181811067ffffffffffffffff821117156127b1576127b061275a565b5b80604052505050565b60006127c461267a565b90506127d08282612789565b919050565b600067ffffffffffffffff8211156127f0576127ef61275a565b5b6127f98261251e565b9050602081019050919050565b82818337600083830152505050565b6000612828612823846127d5565b6127ba565b90508281526020810184848401111561284457612843612755565b5b61284f848285612806565b509392505050565b600082601f83011261286c5761286b612750565b5b813561287c848260208601612815565b91505092915050565b61288e81612568565b811461289957600080fd5b50565b6000813590506128ab81612885565b92915050565b600080604083850312156128c8576128c7612684565b5b600083013567ffffffffffffffff8111156128e6576128e5612689565b5b6128f285828601612857565b92505060206129038582860161289c565b9150509250929050565b600060ff82169050919050565b6129238161290d565b82525050565b600060208201905061293e600083018461291a565b92915050565b600082825260208201905092915050565b6000612960826124d8565b61296a8185612944565b935061297a8185602086016124f4565b6129838161251e565b840191505092915050565b61299781612568565b82525050565b600060408201905081810360008301526129b78185612955565b90506129c6602083018461298e565b9392505050565b600073ffffffffffffffffffffffffffffffffffffffff82169050919050565b60006129f8826129cd565b9050919050565b612a08816129ed565b82525050565b6000602082019050612a2360008301846129ff565b92915050565b60008060408385031215612a4057612a3f612684565b5b6000612a4e858286016126af565b9250506020612a5f8582860161289c565b9150509250929050565b600060208284031215612a7f57612a7e612684565b5b600082013567ffffffffffffffff811115612a9d57612a9c612689565b5b612aa984828501612857565b91505092915050565b600081519050919050565b600082825260208201905092915050565b6000819050602082019050919050565b612ae7816129ed565b82525050565b6000612af98383612ade565b60208301905092915050565b6000602082019050919050565b6000612b1d82612ab2565b612b278185612abd565b9350612b3283612ace565b8060005b83811015612b63578151612b4a8882612aed565b9750612b5583612b05565b925050600181019050612b36565b5085935050505092915050565b60006020820190508181036000830152612b8a8184612b12565b905092915050565b612b9b816129ed565b8114612ba657600080fd5b50565b600081359050612bb881612b92565b92915050565b600060208284031215612bd457612bd3612684565b5b6000612be284828501612ba9565b91505092915050565b612bf48161290d565b8114612bff57600080fd5b50565b600081359050612c1181612beb565b92915050565b600060208284031215612c2d57612c2c612684565b5b6000612c3b84828501612c02565b91505092915050565b7f4e487b7100000000000000000000000000000000000000000000000000000000600052602260045260246000fd5b60006002820490506001821680612c8b57607f821691505b602082108103612c9e57612c9d612c44565b5b50919050565b7f546869732070726f6475637420646f6573206e6f742065786973742100000000600082015250565b6000612cda601c83612944565b9150612ce582612ca4565b602082019050919050565b60006020820190508181036000830152612d0981612ccd565b9050919050565b7f4e487b7100000000000000000000000000000000000000000000000000000000600052603260045260246000fd5b7f5175616e746974792063616e2774206265203021000000000000000000000000600082015250565b6000612d75601483612944565b9150612d8082612d3f565b602082019050919050565b60006020820190508181036000830152612da481612d68565b9050919050565b7f596f75206861766520746f20656e7465722061206e616d652100000000000000600082015250565b6000612de1601983612944565b9150612dec82612dab565b602082019050919050565b60006020820190508181036000830152612e1081612dd4565b9050919050565b600081905092915050565b6000612e2d826124d8565b612e378185612e17565b9350612e478185602086016124f4565b80840191505092915050565b6000612e5f8284612e22565b915081905092915050565b612e738161268e565b82525050565b60008190508160005260206000209050919050565b60008154612e9b81612c73565b612ea58186612944565b94506001821660008114612ec05760018114612ed657612f09565b60ff198316865281151560200286019350612f09565b612edf85612e79565b60005b83811015612f0157815481890152600182019150602081019050612ee2565b808801955050505b50505092915050565b6000819050919050565b6000612f37612f32612f2d84612568565b612f12565b61268e565b9050919050565b612f4781612f1c565b82525050565b6000606082019050612f626000830186612e6a565b8181036020830152612f748185612e8e565b9050612f836040830184612f3e565b949350505050565b6000606082019050612fa06000830186612e6a565b8181036020830152612fb28185612955565b9050612fc16040830184612f3e565b949350505050565b6000602082019050612fde6000830184612e6a565b92915050565b7f596f752063616e6e6f7420627579207468652073616d652070726f647563742060008201527f6d6f7265207468616e206f6e6365210000000000000000000000000000000000602082015250565b6000613040602f83612944565b915061304b82612fe4565b604082019050919050565b6000602082019050818103600083015261306f81613033565b9050919050565b7f4e487b7100000000000000000000000000000000000000000000000000000000600052601160045260246000fd5b60006130b082612568565b9150600082036130c3576130c2613076565b5b600182039050919050565b60006040820190506130e36000830185612e6a565b6130f060208301846129ff565b9392505050565b7f4f776e61626c653a206e6577206f776e657220697320746865207a65726f206160008201527f6464726573730000000000000000000000000000000000000000000000000000602082015250565b6000613153602683612944565b915061315e826130f7565b604082019050919050565b6000602082019050818103600083015261318281613146565b9050919050565b7f4f776e61626c653a2063616c6c6572206973206e6f7420746865206f776e6572600082015250565b60006131bf602083612944565b91506131ca82613189565b602082019050919050565b600060208201905081810360008301526131ee816131b2565b9050919050565b60006020601f8301049050919050565b600082821b905092915050565b6000600883026132427fffffffffffffffffffffffffffffffffffffffffffffffffffffffffffffffff82613205565b61324c8683613205565b95508019841693508086168417925050509392505050565b600061327f61327a6132758461268e565b612f12565b61268e565b9050919050565b6000819050919050565b61329983613264565b6132ad6132a582613286565b848454613212565b825550505050565b600090565b6132c26132b5565b6132cd818484613290565b505050565b5b818110156132f1576132e66000826132ba565b6001810190506132d3565b5050565b601f8211156133365761330781612e79565b613310846131f5565b8101602085101561331f578190505b61333361332b856131f5565b8301826132d2565b50505b505050565b600082821c905092915050565b60006133596000198460080261333b565b1980831691505092915050565b60006133728383613348565b9150826002028217905092915050565b61338b826124d8565b67ffffffffffffffff8111156133a4576133a361275a565b5b6133ae8254612c73565b6133b98282856132f5565b600060209050601f8311600181146133ec57600084156133da578287015190505b6133e48582613366565b86555061344c565b601f1984166133fa86612e79565b60005b82811015613422578489015182556001820191506020850194506020810190506133fd565b8683101561343f578489015161343b601f891682613348565b8355505b6001600288020188555050505b505050505050565b7f536f7272792c20796f7572207265717565737420666f7220726566756e64206860008201527f6173206265656e2064656e6965642e0000000000000000000000000000000000602082015250565b60006134b0602f83612944565b91506134bb82613454565b604082019050919050565b600060208201905081810360008301526134df816134a3565b9050919050565b7f596f7527766520616c72656164792072657475726e656420796f75722070726f60008201527f64756374206f72206469646e2774206576656e20626f756768742069742e0000602082015250565b6000613542603e83612944565b915061354d826134e6565b604082019050919050565b6000602082019050818103600083015261357181613535565b9050919050565b60006135838261268e565b915061358e8361268e565b92508282019050808211156135a6576135a5613076565b5b9291505056fea26469706673582212206a7e454bd055d31d04573d1442cf3edec37aeaa8e0cab12ccc76ee0975c8116d64736f6c634300081b0033",
  "linkReferences": {},
  "deployedLinkReferences": {}
}